:020000040800F2
:2000000030BA0020850100087B120008C308000879120008F5060008D52900080000000044
:20002000000000000000000000000000A5240008F706000800000000911200088529000889
:200040009F0100089F0100089F0100089F0100089F0100089F0100089F0100089F01000860
:200060009F0100089F0100089F0100089F0100089F0100089F0100089F0100089F01000840
:200080009F0100089F0100089F0100089F0100089F0100089F0100089F0100089F01000820
:2000A0009F0100089F0100089F0100089F0100089F0100089F0100089F0100089F01000800
:2000C0009F0100089F0100089F0100089F0100089F0100089F0100089F0100089F010008E0
:2000E0009F0100089F0100089F010008000000000000000000000000000000000000000008
:2001000000000000000000009F0100089F0100089F0100089F0100089F0100089F010008EF
:200120009F0100089F0100089F0100089F0100089F0100089F0100089F0100089F0100087F
:200140009F0100089F0100089F0100089F010008DFF80CD000F05AFA00480047AD3E000886
:2001600030BA0020EFF30980704780F309887047EFF30880704780F30888704740BA70470C
:20018000C0BA70470648804706480047FEE7FEE7FEE7FEE7FEE7FEE7FEE7FEE7FEE7FEE792
:2001A000892900085101000840EA01039B0703D009E008C9121F08C0042AFAD203E011F8EF
:2001C000013B00F8013B521EF9D27047D2B201E000F8012B491EFBD270470022F6E710B585
:2001E00013460A4604461946FFF7F0FF204610BD034600E0401C0278002AFBD111F8012B6B
:2002000000F8012B002AF9D11846704730B50EE003460A4601E05B1C521C1C781578AC4270
:2002200001D1002CF7D115F0FF0F04D0401C0278002AEDD1002030BD10B5002200E0521C11
:20024000835C8C5CA34201D1002BF8D1D8B2E1B2401A10BD034611F8012B00F8012B002A1C
:20026000F9D11846704780EA010210B502F00043400026D04A0023D04FEA106101EB1261BC
:20028000C0F35600C2F3560240F4000042F40002A0FB0220A1F17F014FEA0040140401D0AB
:2002A00000F1010050EA124001D44000491EC2B20C0604EBD010401C4008802A02D003E0EC
:2002C000002010BD20F00100002900DA0020184310BD30B480EA010202F0004530F00042EB
:2002E00021F0004015D0A0B1C0F3C753C2F3C754C2F31601C0F31600E41A41F4000140F4DD
:2003000000027D34914201D3641C00E04900002C02DA30BC002070474FF4000000239142D6
:2003200001D3891A034340084FEA4101F7D151B1914202D14FF0004105E002D24FF0010153
:2003400001E06FF0010103EBC450284430BC00F0C7B82DE9FE4F81EA030404F0004421F074
:20036000004100944FF0000B23F0004350EA010402D052EA030404D10020014603B0BDE820
:20038000F08FC3F30A54C1F30A552C44A4F2F3340194A0FB0254C1F3130141F48011C3F3C0
:2003A000130343F4801301FB024400FB034E840A970A44EA815447EA8357A4FB07680295ED
:2003C0008D0A05FB07854FEA932C04FB0C542705029D4FEA065847EA1637B5EB08056EEBBD
:2003E000070C870E920E47EA811742EA8312A7FB0201B6EB0B0164EB00042B0D43EA0C33E2
:200400005E1844EB1C50DA465146E7FB0201C5F313044FEA0B3343EA14534FEA0432019C49
:2004200043EA0603A4F10C040294009CCDE900B400F099F8A2E796230022114600F059B808
:2004400020F00040C10DC0F3160040F400007F2901DA00207047962903DCC1F19601C84038
:200460007047963988407047C1F30A5210B5C1F3130140F2FF3341F480119A4201DA0020D9
:2004800010BD40F233439A42A2F2334203DC524200F016F810BD904010BD00F0004230F0D5
:2004A00000400AD0C10D01F56071C0F3160042EA0151C2084007114370470020014670470C
:2004C000202A04DB203A21FA02F00021704721FA02F3D040C2F1200291400843194670478D
:2004E0000029A8BF7047401C490008BF20F00100704710B4B0FA80FC00FA0CF050EA010462
:2005000004BF10BC704749B1CCF1200421FA04F411FA0CF118BF012121430843A3EB0C015C
:20052000CB1D0106000A002BBEBF002010BC704700EBC35010440029A4BF10BC7047401CBA
:20054000490008BF20F0010010BC704710B5002B08DA401C41F1000192185B411A4301D121
:2005600020F0010010BD2DE9F04D92469B4611B1B1FA81F202E0B0FA80F22032904600F09B
:2005800057F804460F4640EA0A0041EA0B0153465A46084303D120463946BDE8F08D11464C
:2005A00053EA010015D0C8F140025046FFF788FF05460E4650465946424600F039F8084342
:2005C00001D0012000E00020054346EAE0762C4337430A984FEA4453A0EB08004FEAD4243C
:2005E0000A304FF0000244EA47544FEAD72502D500200146D1E7010510196941DDE90845A0
:2006000000196941BDE8F04DA0E70000064C074D06E0E06840F0010394E807009847103400
:20062000AC42F6D3FFF798FDD45B0008F45B0008202A04DB203A00FA02F1002070479140D2
:20064000C2F1200320FA03F319439040704770B58D1810F8014B14F0030201D110F8012BA4
:20066000231106D110F8013B03E010F8016B01F8016B521EF9D1B3B110F8012B04F00C0499
:200680008A1A0C2C04D0A2EB841203F1020308E010F8014BA2EB0422F7E712F8014B01F872
:2006A000014B5B1EF9D5A942D3D3002070BD70B515460E46044602F085F84FF0E020016993
:2006C00021F0010101614FF00060844200D88000211A00F0D3FD3046FFF74DFDAC46BDE8A0
:2006E00070406047002302E0C1545B1C9BB29342FAD37047FEE7704770B505464FF43026C7
:20070000304600F05DF8042813D10A4C206940F0020020616561206940F0400020613046C6
:2007200000F04EF8052804D0216941F6FD721140216170BD0020024008490420CA68D20770
:2007400001D001207047CA68520701D502207047C968C906FBD503207047000000200240AA
:200760000248016941F080010161704700200240F0B506464FF400570D46384600F020F834
:2007800004280ED1074C206940F0010020613580384600F015F8052803D02169BA1E1140DD
:2007A0002161F0BD002002400348024941600349416070472301674500200240AB89EFCDAB
:2007C00000B50346FFF7B8FF03E000BFFFF7B4FF5B1E012803D0002B00D1052000BD002BA5
:2007E000F4D1FAE708B50121480500F081FE0121082000F089FEC020ADF8000003208DF8CA
:2008000002001C208DF803006946024800F004F808BD0000000C0140F0B5CA78002502F01D
:200820000F03D20601D58A7813430A784FF00F0E12F0FF0F4FF001021CD004680F8802FA85
:2008400005F63740B74211D14FEA850C0EFA0CF724EA070703FA0CF43C43CF78282F02D06E
:20086000482F02D002E0466100E006616D1C082DE4D304600C88FF2C1ED944685FF00006CF
:2008800006F1080702FA07F50F882F40AF420FD14FEA860C0EFA0CF7BC4303FA0CF73C432F
:2008A000CF78282F00D14561CF78482F00D10561761C082EE4D34460F0BD416170470161A3
:2008C0007047FEE702460020938A128B43EA024323F07F42914300D101207047C943818288
:2008E00070470029018802D041F0010101E021F001010180704700001FB50020ADF80400C1
:20090000ADF808004FF48060ADF80A000001ADF80C004BF6FF710748074CADF80610009008
:200920006946204600F004F901212046FFF7D9FF1FBD0000801A0600005400402DE9F04108
:20094000064611F007000C4602F00701C0F10807C2F3C705884611D08DB1D01BC0F3C7055F
:2009600000F0070897B33A462146304600F042F800F092F8E019C4B23E4427E05DB90A46CF
:2009800012E008222146304600F034F800F084F80834E4B208362800A5F10105EDB2F0D1A2
:2009A0005FEA080018D002462146304600F022F8BDE8F04100F070B808222146304600F0EA
:2009C00019F800F069F80834E4B208362800A5F10105EDB2F0D1E3E7BDE8F08110B5FFF7E6
:2009E00001FFFFF789FF0249A020088010BD0000983600202DE9F041234C15468846064600
:200A00004FF400373946204600F082F80028F9D10121204600F068F81C4F20463946FFF7FD
:200A200051FF0028F9D01A4800220078C1B2204600F0DCF8174F20463946FFF743FF002831
:200A4000F9D04146204600F0D9F8124FBF1C39462046FFF737FF0028F9D00AE031782046E8
:200A600000F0CCF8761C39462046FFF72BFF0028F9D02800A5F10105EDB2EFD12046BDE80C
:200A8000F041012100F03AB80054004001000300983600208200070070B5104C104D012112
:200AA000204600F021F81421204600F09DF828780022C1B2204600F099F81421204600F000
:200AC00093F88007EBD507492046FFF707FF2046BDE87040012100F011B800000054004068
:200AE00098360020000400100029018802D041F4807101E021F48071018070470029018879
:200B000002D041F4007101E021F400710180704700220B0F21F07F4101D0143001E0090CA6
:200B200018300068084200D0012210467047000070B50446808886B00D4620F03F066846B8
:200B400000F0EEFC26490298B0FBF1F189B20E43A680228822F001022280224B2A689A4237
:200B60001CD85200B0FBF2F080B2042800D20420491C2184A083208840F0010020802188FF
:200B80004FF6F5300140A8886A89104308432080A88929890843208106B070BDEB88A3F58C
:200BA0003F46FF3E05D102EB4202B0FBF2F080B208E002EBC20303EB0212B0FBF2F080B252
:200BC00040F48040020501D140F001004FF4967251434FF47A72B1FBF2F140F40040C7E758
:200BE00040420F00A0860100405A704712B141F0010101E001F0FE010182704701827047B1
:200C000030B5002405462146204600F0CBF900F051FA0B480022C0F8A0210A4B01211960E6
:200C2000094B1D60094B4FF4963500BFC3F8B821C3F8B811641CAC42F8D3C0F8A01130BD1B
:200C400000002242B48122420C1801400080214208B54FF6FF70ADF8000004208DF803008D
:200C600069460248FFF7D8FD08BD00000018014008B54FF6FF70ADF8000003208DF80200D2
:200C800010208DF8030069460148FFF7C5FD08BD00180140054B10B4DB68203AD2B25C68D5
:200CA0009B7802FB034210BC00F01EB8580000202DE9F041154680460C460A4E4FF4A07769
:200CC0000BE021464046FFF7E5FFF068007801198CB22044B84203D86D1C2A78002AF0D1EB
:200CE000BDE8F081580000202DE9F84FC0B28A4693460026009000F055F9B046DFF890900D
:200D00003DE000BF00F0D6F9E068A146047828E0082C02D30827002502E0274600251DE0B7
:200D20001BF806008021E9400842484601D0408810E0017869B1D9F80C000078011B01EB7F
:200D40000A00401C81B2009800F02CF900F0B2F902E0808800F094F9641E6D1CBD42DFD38F
:200D6000761C002CD4D10B490120086000985146401CC0B2009000F015F908F10108D9F8D5
:200D80000C004C4641784145BCD8BDE8F88F000058000020A00122422DE9F043124D144637
:200DA00006466F8888469946D2B200F059F8A9F101001FFA80F908F101001FFA80F8641E44
:200DC0006888A4B2688007E0761CB0B2064600234A46414600F00AF82000A4F10104A4B282
:200DE000F2D16F80BDE8F083580000202DE9F0471646984605468A46002400F0D3F8012708
:200E0000DFF85090B8F1000F1DD100F053F9B9F8020000F035F9012000220F4905E000BF29
:200E2000C1F8B821C1F8B871401CB042F8D30CE0B9F8020000F030F96D1CADB25146284680
:200E400000F0B0F8641CB442F2D304480760BDE8F08700005800002000802142A001224290
:200E6000F0B51C46164605460F4600232246FFF7BDFFA81980B2002322463946FFF7B6FF8A
:200E80000123324639462846FFF7B0FF3819401E81B232462846BDE8F0400123FFF7A6BF08
:200EA000F8B50121782000F02FFB4FF6FF70ADF8000003248DF8024010258DF803506946AE
:200EC0001C48FFF7A9FCA802ADF800008DF802408DF8035069461848FFF79EFC2801ADF8B8
:200EE00000008DF802408DF8035069461348FFF793FC6802ADF80000114E8DF802408DF80A
:200F0000035069463046FFF787FCE802ADF800008DF802408DF8035069463046FFF77CFC1F
:200F200008490120086008490860084988600860F8BD000000180140000C014000100140D1
:200F400000140140A0012242B8812142B48122422DE9F0410C4F00243C600C4D2C600C4966
:200F60000C600C4A106001260E60FFF771FE2E60AC60AE600748001F00683E6084B2FFF7FD
:200F800077FE2046BDE8F081A0012242B4812242B88121420C1801400149888070470000B8
:200FA0005800002010B50C4612490A89A2F50943893B06D101464E2000F092F821464F2031
:200FC0000DE00A89A2F51343203B0CD10146202000F086F8A4F23F14604281B22120BDE8D3
:200FE000104000F07DB80989A1F51942193AEDD1E0E70000580000200149C8607047000080
:20100000580000200149488070470000580000202DE9F041174E00277770174D2846401E2D
:20102000FDD1FFF73DFF154C2046401EFDD1012100F056F82046401EFDD1FFF789FF30819C
:20104000641EFDD13089A0F51341253904D03089A0F51341283902D101F026FA01E003F0B1
:20106000C7F90020FFF7CCFD6D1EFDD17770BDE8F081000058000020C0D4010080A9030042
:20108000034900220A60034A1060012008607047B88121420C18014010B5044600F00AF879
:2010A0002046FFF7EDFF02490120086010BD0000A001224206490020086006490860064A64
:2010C0001060064B222018600120106008607047A0012242B4812242B88121420C18014046
:2010E0002DE9F0433E4D00228946C5F8A0213D494B786424012B07D1CC8002E0CB885B1EDE
:20110000CB80CB88002BF9D1374EC6F8B4214B78012B07D1CC8002E0CB885B1ECB80CB88C5
:20112000002BF9D1314BC3F8B82191F801C04FF47A77BCF1010F0CD1CF8005E0B1F806C0EF
:20114000ACF1010CA1F806C0B1F806C0BCF1000FF4D1DFF89C80C8F800000120C3F8B8014E
:2011600091F801C0BCF1010F0DD1CC8006E000BFB1F806C0ACF1010CA1F806C0B1F806C0B2
:20118000BCF1000FF4D1C6F8B4014E78012E07D1CC8002E0CE88761ECE80CE88002EF9D1DA
:2011A000C3F8B8214A78012A07D1CF8002E0CA88521ECA80CA88002AF9D1C8F80090C3F848
:2011C000B8014A78012A07D1CC8002E0CA88521ECA80CA88002AF9D1C5F8A001BDE8F0839B
:2011E000000022425800002000802242008021420C180140F8B50121042000F085F94FF443
:201200008070ADF800000425174E8DF8035003248DF8024069463046FFF7FEFA012104208C
:2012200000F072F9ADF8005010258DF803508DF8024069463046FFF7EFFA0C4800260660A6
:201240000121202000F060F9A802ADF800008DF803508DF8024069460548FFF7DDFA0548DF
:20126000C0F8B861F8BD000000080140880121420014014000802242FEE77047024A114041
:20128000014302480160704780FFFF1F08ED00E070470000F8B516000F4611D0104CB2B2C6
:2012A0003846216800F0C6FE00250CE041190122684600F091FE785D9DF80010884201D0A3
:2012C0000020F8BD6D1C2068B542EFD330442060B0F5163F01D3002020600120F8BD000037
:2012E000783600202DE9F74F002694B00C468DF80060B246354601224FF4FC11684600F09F
:201300006BFE9DF80000FF2801D18DF800604FF4F81900270DF1040817E000BF07F0FF0BB5
:201320005FF0000609EB060108EB0600012200F053FE18F80600761C0028F3D101A8149916
:20134000FEF77AFF88B1B1447F1C9DF800008742E4D3C1B24FF4183000EB8137A2B23946CD
:20136000169800F067FE002658E04FF4183000EB873604275FF0000506EB053000F06CFFD9
:201380006D1CBD42F8D3A2B23146169800F052FE00250BE07119012211A800F01DFE169812
:2013A000415D9DF8440081427DD16D1CA542F1D34D4D4FF480573A4629464C4800F00CFE40
:2013C000284600F049FF494E210A06EB8B0006F82B404170210C8170210EC1703A462946A2
:2013E000304600F027FE00240122611911A800F0F3FD305D9DF8441088426FD1641CBC420A
:20140000F2D36FE0B919012211A800F0E5FD16989DF84410805D884260D1761CA642F1D38B
:2014200000260BE0012205F5F81112A800F0D4FD9DF848006D1C0028F4D1761C9DF8000080
:201440008642EFD3002002E0401C0AF1010A1499095C0029F8D105F5F8150AF10106B2B22D
:201460002946149800F0E6FDB2B2294601A800F0B3FD01A81499FEF7DFFEA0B99DF800103C
:201480001948042200EB810529460EA80E9400F0D1FD042229460FA800F09EFDDDE90E0123
:2014A00088421BD100E019E09DF800004FF4FC14401C8DF80000204600F0CEFE0122214628
:2014C000684600F0B7FD0122214610A800F084FD9DF800009DF84010884203D0002017B009
:2014E000BDE8F08F0120FAE700701F00045D0020044A0029D16901D0014300E08143D1611A
:201500007047000000100240044A0029916901D0014300E08143916170470000001002409D
:2015200070B52D4A51682D4B11F00C0104D02C4C042903D0082903D0036029E0046027E0A9
:201540005168536801F47011890C03F480330D2901D0891C00E00621BBB1D36A13F4803F40
:20156000D36A03F00F0303F101030AD0D56AD66AC5F303156D1CB4FBF5F4C6F30326B61C33
:201580007443B4FBF3F34B43D6E7164B594301605168154B01F0F00109095C5C0168E14007
:2015A0004160546804F4E064240A1C5D21FA04F48460546804F46054E40A1B5DD940C160EC
:2015C0005268094B02F44042920B1B1F9A5CB1FBF2F1016170BD00000010024000127A00BC
:2015E00040787D0100093D009E36002010B5C0B04FF4807421466846FEF7EFFD002069464A
:20160000FF220A54401C80B2FF28FAD9224600216846FFF793F940B010BD000002490120E1
:201620000860FF2000F094BCAC8122422DE9FF41DFF8008104464FF400670025FF263946E7
:201640004046FFF73AF9FF2200210A2000F038FB002000F0BCF990B9FE2000F0B8F938B98E
:201660004FEA0D0600F08EFA70556D1C102DF9D3FF2000F0C3FBFF2000F0C0FB0026394613
:201680004046FFF71CF9FF2000F0B8FB9DF8000020709DF801000002608060889DF80210CB
:2016A000084360809DF803000006606060689DF8041040EA0140606060689DF8051040EA69
:2016C0000120606060689DF80610084360609DF8070020729DF8080060729DF8090000066A
:2016E000E060E0689DF80A1040EA0140E060E0689DF80B1040EA0120E060E0689DF80C108C
:201700000843E060217C9DF80D0041EA101121740007000D6082608A9DF80E10084360825E
:201720009DF80F00400820750120607504B03046BDE8F081001401402DE9FF41DFF81082DE
:2017400004464FF400660025FF2731464046FFF7B4F8FF220021092000F0B2FA002000F095
:2017600036F918B1384604B0BDE8F081FE2000F02EF938B94FEA0D0700F004FA78556D1C72
:20178000102DF9D3FF2000F039FBFF2000F036FB002531464046FFF792F8FF2000F02EFBE3
:2017A0009DF8000081092170C0F38301617000F00300A07067480123002682681AB921781F
:2017C00001297DD006709DF80110E1709DF8021021719DF8031061719DF804100901E1805E
:2017E000E7889DF8051047EA1117E78001F00F0121729DF80610CF096772C1F38017A772BC
:20180000C1F34017E772C1F30017277366730778002F7DD09DF807108906890A2161216951
:201820009DF808C001EB0C21216121699DF809C0614421619DF80810C1F3C20C04F814CF93
:2018400001F0070161709DF809104FEA511C84F802C0C1F3820C84F803C08907490F217131
:2018600094F804C09DF80A104CEAD11C84F804C0C1F3801C84F805C08906490EA17194F8F1
:2018800006C09DF80B104CEAD11C84F806C001F07F01E1719DF80C104FEAD11C84F808C08F
:2018A000C1F3411C84F809C0C1F3820C84F80AC08907090FE17294F80BC09DF80D1000E066
:2018C0002BE04CEA911C84F80BC0C1F3401C84F80CC0667301F00101A1739DF80E10CE0911
:2018E000E673C1F380162674C1F340166674C1F30016A674C1F38106E67401F003012175C3
:201900009DF80F1049086175A375143C032A00E005E01AD2012F11D012E0037053E7890766
:20192000090D216121699DF807C041EA8C01216121699DF808C041EA9C117AE7082121760F
:201940002169217E217A521C826028460BE70000001401400000002010B50446FFF7ECFEAF
:20196000FF2802D12046FFF7E7FE04F12C00FFF75DFE02462069217E401C891C237A8840E4
:20198000012199404843C4E9110103484168491C4160104610BD00000000002070B500247C
:2019A00000F0F0F800F01F05052D06D00B2D0AD00D2D0AD0641C402CF2D900F0E3F8002863
:2019C000FBD0284670BD0B2070BD0D2070BD70B5054640F2FF6400E0641E00F0D3F8A842E3
:2019E00002D0002CF8D102E00CB1002070BDFF2070BD70B505464FF6FF7401E0641EA4B207
:201A0000FF2000F04DF9A84202D0002CF6D102E00CB1002070BDFF2070BD00002DE9F84339
:201A200000F01CF9382000F0BBFA0024FF2000F08FFA641CA4B20A2CF8D31426504D002713
:201A400000219522084600F056F90446012805D03000A6F10106B6B2F2D180E02F70872238
:201A60004FF4D571082000F046F94FF6FE78012820D001220021372000F03DF901220021AD
:201A8000292000F038F9012853D802202870464601220021372000F02EF901220021292003
:201AA00000F029F9040053D03000A6F10106B6B2EED14DE000266F46FF2000F0F1F8B855EB
:201AC000761CB6B2042EF7D39DF80200012847D19DF80300AA2843D146464FF08048012204
:201AE0000021372000F007F901224146292000F002F9040004D03000A6F10106B6B2EED1D3
:201B000076B3012200213A2000F0F5F840BB0026FF2000F0C5F8B855761CB6B2042EF7D331
:201B20009DF80000400601D5062000E00420287016E001202870464601220021104600F06D
:201B4000DAF8040004D03000A6F10106B6B2F3D12EB101225102102000F0CDF800B12F7057
:201B6000FFF75CFD002000F01BFA287810B10020BDE8F8830CB12046FAE7AA20F8E70000A3
:201B80000C00002010B50B4C0221204600F0E2FB0028F9D0FF21204600F0E5FB01212046D8
:201BA00000F0D8FB0028F9D0204600F0DAFBC0B210BD0000003001402DE9F04106461848A3
:201BC00015460078062800D049024FF40077012D4FF0010219D0122000F08DF8394630463A
:201BE00000F020F86D1E044606F5007615F0FF0501D0002CF2D0012200210C2000F07BF8FC
:201C0000FFF70CFD2046BDE8F081112000F073F80400F5D13946304600F004F80446EFE7F2
:201C20000C00002070B504460D46FE20FFF7E1FE30B1012070BD00BF00F08AF904F8010B5A
:201C40002800A5F10105ADB24FF0FF00F4D100F07FF9FF2000F07CF9002070BD38B5012116
:201C60002020FFF751FC4FF40064ADF8004010208DF803000320084D8DF802006946284681
:201C8000FEF7CAFD21462846FEF719FE00F022F902490120086038BD00140140AC812242ED
:201CA00000F056B9054910B50020086000F054F8002802D0FFF7B2FC012010BDAC81224231
:201CC0007CB540F040008DF80000080E8DF80100080C00248DF80200080A8DF804108DF853
:201CE00003008DF805206D46285D00F087F8641C062CF9D37CBD70B5054616460C46FFF7C5
:201D00008DFCFFF7CFFF08B1FF2070BD45F0400000F01EF9200E00F01BF9C4F3074000F0D5
:201D200017F9C4F3072000F013F9E0B200F010F9304600F00DF90C2D02D1FF2000F008F9A6
:201D40001F24FF20FFF7ACFF0106DED52100A4F10104E4B2F5D170BD70B500246FF07F4516
:201D6000FF20FFF79DFFFF2804D0641CAC42F7D3012070BD002070BD2DE9F047DFF874A0AC
:201D80000F4605464FF4006990460024FF2649465046FEF792FD18480078012800D17F0AD4
:201DA000FF2239461820FFF78BFF0020FFF70FFEB0B9FF2000F022F8FE2000F01FF804E00D
:201DC000287800F01BF86D1C641C4445F8D3FFF7D9FEFFF7D7FEFFF7E1FD052800D1002673
:201DE00049465046FEF76BFDFF2000F007F83046BDE8F087001401400000002070B50B4CD0
:201E000005460221204600F0A5FA0028F9D02946204600F0A8FA0121204600F09BFA0028D2
:201E2000F9D0204600F09DFAC0B270BD003001402DE9F05FDFF894B0894605464FF4006A95
:201E40001E4617464FF00008FF2451465846FEF734FD2DE01E480078012813D009EB080108
:201E6000FF221820FFF72CFF0020FFF7B0FD00284FF0FF0026D1FFF7C1FFFE20FFF7BEFF41
:201E8000002408E009EB0800410AE9E72878FFF7B5FF6D1C641CBC42F8D308F50078FFF798
:201EA00071FEFFF76FFEFFF779FD05280CD0FF24761ECFD251465846FEF701FDFF20FFF746
:201EC0009DFF2046BDE8F09F0024F1E7001401400000002038B5012141F20400FFF714FB10
:201EE000E020ADF8000018208DF803000320154C8DF8020069462046FEF78EFCE021204677
:201F0000FEF7DDFC104800214FF482720180428081800222C2800122028152024281382282
:201F20008281C18107210182084C0146204600F01CFA0121204600F045F8FF2000F008F8E6
:201F400038BD000000080140BC3600200030014070B506460024114D03E0641CE4B2C82CE0
:201F60000FD80221284600F0F5F90028F5D03146284600F0F8F9002405E0641CE4B2C82C45
:201F800001D9002070BD0121284600F0E3F90028F3D0284600F0E5F9C0B270BD0030014087
:201FA00010B50649064C8881204600F0DEF92046BDE81040012100F005B80000BC36002049
:201FC000003001400029018802D041F0400101E021F04001018070472DE9F041DFF8508041
:201FE0000D4606464FF40077144639464046FEF764FC032000F054F9C5F3074000F050F93C
:020000040800F2
:20200000C5F3072000F04CF9E8B200F049F904E0A52000F045F906F8010B2000A4F1010445
:20202000A4B2F5D139464046BDE8F041FEF747BC000C01402DE9F04707460E4611F0FF0076
:20204000C0F10001CDB24FEA122402F0FF094FF4807A13D0F0B24042C0B206EB00081CB368
:20206000501B80B2040A00F0FF092A463146384600F0BEF83D44464657462CE07CB1554634
:202080002000A4F10104E4B20CD02A463146384600F0AEF806F5807607F58077F0E73146E7
:2020A000384623E04A46FAE7A945F8D9A9EB0500C4B22A463146384600F09AF84146781961
:2020C000224613E03A463146284600F091F806F5807605F580752000A4F10104E4B2F1D1D5
:2020E0005FEA090006D0024631462846BDE8F04700F07EB8BDE8F08770B500F003F9094D06
:202100004FF4007421462846FEF7D7FBC72000F0C7F821462846FEF7D2FBBDE8704000F0FA
:20212000D9B80000000C014030B5012187B00803FFF7EAF901210C20FFF7E6F92020ADF897
:20214000140003208DF816001820264C8DF8170005A92046FEF760FB8020ADF8140005A9FC
:202160002046FEF759FB4020ADF8140014208DF8170005A92046FEF74FFB6415ADF8144002
:202180001020194D8DF8170005A92846FEF744FB21462846FEF793FB0020ADF800004FF45D
:2021A0008271ADF80210ADF804000221ADF806100121ADF808100821ADF80C10ADF80A4036
:2021C000ADF80E000720094CADF810006946204600F0CBF801212046FFF7F4FE00F0A6F855
:2021E00007B030BD00080140000C0140003001402DE9F04114460D46064600F083F8DFF8B2
:2022000054804FF4007739464046FEF756FB022000F046F8C5F3074000F042F8C5F307208D
:2022200000F03EF8E8B200F03BF87810844204D9FF24307800F034F8761C2000A4F101045D
:20224000A4B2F6D139464046FEF739FBBDE8F04100F040B8000C014070B5044600F052F87F
:202260000E4E4FF4007529463046FEF726FB202000F016F8C4F3074000F012F8C4F307203B
:2022800000F00EF8E0B200F00BF829463046FEF716FBBDE8704000F01DB80000000C014071
:2022A00070B50B4C05460221204600F053F80028F9D02946204600F056F80121204600F017
:2022C00049F80028F9D0204600F04BF8C0B270BD0030014070B50A4D4FF40074214628461B
:2022E000FEF7EBFA0520FFF7DBFFA520FFF7D8FFC007FAD121462846BDE87040FEF7DFBA33
:20230000000C014070B5084D4FF4007421462846FEF7D3FA0620FFF7C3FF21462846BDE850
:202320007040FEF7CCBA0000000C014070B5084D4FF4007421462846FEF7BFFAAB20FFF7B0
:20234000AFFF21462846BDE87040FEF7B8BA0000000C01400246002012890A4200D00120B1
:202360007047808970478181704730B502884C8802F441530A88CD8822438C882C4322432C
:202380000C8922434C8922438C892243CC8922431A430280828B22F400628283098A018256
:2023A00030BD000010B5002306E000BF30F8024B21F813405B1C9BB29342F7D310BD000092
:2023C0002DE9F84FA0F10064154689468246B4F5002F4FD2FEF7E8F9E70AC4F34906C6F538
:2023E0008064A54200D82C46DFF88C804FF4806B4FF0006000EBC7205A461F490090FFF7B8
:20240000D1FF00204FF6FF7106E0331838F813208A4203D1401C80B2A042F6D3A04221D2D5
:202420000098FEF769F90020424606E039F810108319401C22F8131080B2A042F6D35A461C
:202440000D49009800F01AF8A5420FD0281B09EB4409A2447F1C002685B25C46A542C7D83C
:202460002C46C5E7224649465046EBE7BDE8F84FFEF776B9BDE8F88F243F00202DE9F041D9
:2024800016460F460546002408E000BF37F814102846FEF76DF9AD1C641CA4B2B442F5D3FC
:2024A000BDE8F08170470000F0B543F20801E320FEF716FE1221E720FEF712FE41F231219C
:2024C000EF20FEF70DFE4FF480710120FEF708FE4FF4E0610220FEF703FE41F21801032092
:2024E000FEF7FEFD00210420FEF7FAFD40F207210820FEF7F5FD00210920FEF7F1FD002104
:202500000A20FEF7EDFD01210C20FEF7E9FD00210D20FEF7E5FD00210F20FEF7E1FD734C82
:202520002046401EFDD100211020FEF7D9FD07211120FEF7D5FD00211220FEF7D1FD002196
:202540001320FEF7CDFD2046401EFDD125466D1EFDD141F290211020FEF7C2FD40F22721F1
:202560001120FEF7BDFD2046401EFDD12046401EFDD11A211220FEF7B3FD2646761EFDD177
:2025800025466D1EFDD14FF4C0511320FEF7A8FD28212920FEF7A4FD0C212B20FEF7A0FD24
:2025A0002046401EFDD12646761EFDD100212020FEF796FD00212120FEF792FD2746641EFD
:2025C000FDD13C463D466D1EFDD100213020FEF787FD40F205313120FEF782FD0321322042
:2025E000FEF77EFD4FF441713520FEF779FD0F213620FEF775FD40F207413720FEF770FD96
:202600004FF401713820FEF76BFD40F207713920FEF766FD40F203413C20FEF761FD41F29D
:2026200004613D20FEF75CFD2046401EFDD1641EFDD100215020FEF753FDEF215120FEF75C
:202640004FFD00215220FEF74BFD40F23F115320FEF746FD4FF427416020FEF741FD0121B1
:202660006120FEF73DFD00216A20FEF739FD00218020FEF735FD00218120FEF731FD0021E6
:202680008220FEF72DFD00218320FEF729FD00218420FEF725FD00218520FEF721FD1021B4
:2026A0009020FEF71DFD4FF4C0619220FEF718FD0F480089A0F51341283910D10321932059
:2026C000FEF70EFD4FF488719520FEF709FD00219720FEF705FD00219820FEF701FDBDE8CE
:2026E000F04040F233110720FEF7FABCC0D401005800002010B5FEF78BFC03490148C86057
:2027000010BD0000683600205800002029480021026842F4803202604FF4A063026801F1CE
:20272000010112F4003F01D19942F7D1016889033FD521490A6842F010020A600A6822F0C6
:2027400003020A600A6842F002020A604168416041684160416841F480614160C16A174A78
:202760001140C162C16A164A1143C162016841F08061016001680901FCD5416821F47C1178
:202780004160416841F4E8114160016841F08071016001688901FCD5416821F00301416011
:2027A000416841F0020141604168C1F381010229FAD17047001002400020024000F0FEFF6E
:2027C000440601002DE9FE434FF000095C48CDF8009000F1CC05CDF80490CDF80890A86195
:2027E000C920584CE86105F12000616800F0CCFF002872D1FFF798FC01F062FDDFF8488184
:202800004FF480664E49CC3101F1200001F090F888F80000002878D1687A002875D02E28DA
:20282000F0D0A869017801B108B94548D53047A1E060FDF7EBFC10B9287AC006E2D545A178
:20284000E068FDF7E3FC10B10120207001E084F800904249414881F800906168FDF7FAFC2E
:202860003FA13E48FDF7C4FC3C48E168FDF7C0FC01223A493B4800F0E9FE0028C2D1FEF711
:20288000BFF914215A20E268FEF712FA36A25A217820FEF70DFA207800BB32484FF48042CD
:2028A000FF21C06860612D486430FDF71BFF2B4F6437244B3246103339462A4800F090FF49
:2028C000A070206907F58067B042F2D2234A61696432E068FEF706FD13E02FE0194B1F49EB
:2028E0001033324664311F4800F07AFFA0702269B24206D31949E0686431FEF7CBFCEDE781
:2029000003E0184800F084FE7CE70020FEF778F918A250216E20FEF7CBF9194800F046FB15
:202920000E486946243800F02FFF002806D1A06801F000F9D4E9010101F026F8BDE8FE8333
:20294000046D002080360020120000202E62696E000000005F6C6F676F000000146E0020C5
:202960002F00000078AE00205570646174696E672E2E2E00436F6D706C65746500000000E3
:20298000FFFF0F00704700000F48016841F00101016041680D4A1140416001680C4A11401D
:2029A0000160016821F480210160416821F4FE014160016821F0A05101604FF47F01816068
:2029C0000021C162FFF7A2BE001002400000FFF0FFFFF6FEFEE702E008C8121F08C1002A6F
:2029E000FAD170477047002001E001C1121F002AFBD1704710B504460A464078012304F1CD
:202A0000300100F0B9FD08B1032010BDB4F82E02A0F52A41553901D0022010BD94F866001A
:202A2000B4F8671040EA01210848B0EB012F08D094F88210B4F8832041EA0221B0EB012FAE
:202A400001D1002010BD012010BD00000046415470B51B49002000F0E5FD1A4C01221A4888
:202A6000A16800F0F3FD194D40B1296821616A6828466261BDE87040FDF719BE1248C0685E
:202A800060620020FEF7BCF811A264215020FEF70FF90C4A822134328C20FEF709F901F013
:202AA00055FA094800F0B4FDE06801F043F8D4E9020100F069FFD4E904122846DAE7000047
:202AC000D0360020100000200039002000700008757064617465000000E0401C02780AB1DB
:202AE0008A42FAD1D0B270472DE9F04716460A4601680D78303D092D02D84B783A2B01D0A9
:202B0000002506E0891C0160022D02D30B20BDE8F087774850F82540146094B1207820B1CB
:202B2000607800F049FDC1070DD04FF0000984F80090E8B2607000F009FDC10708D003206B
:202B4000E5E70C20E3E70EB1400704D40020DEE71EB1400701D50A20D9E700210D46204640
:202B6000FFF748FF01280CD104F5F7700179E9B3017AD0F8090041EA002529462046FFF735
:202B800039FF032801D088BB01E00120BFE7B4F83B00B0F5007F58D1B4F8460028B994F883
:202BA0005400D4F8551040EA0120E06194F840108446E170012901D0022946D1484394F8B9
:202BC0003D10A17091B14B1E19423ED1B4F841202281130739D1B4F843602EB994F850306C
:202BE000D4F8516043EA0626E38F00E02DE063B31F1807EB1217BE4227D3F61BB6FBF1F19A
:202C000019B3012640F6F678414500D302264FF6F678414500D303262F44891C2B44A762D7
:202C20002362A161032E12D07AB118446062022E18D001F0010001EB410100EB510000BF7E
:202C400000F2FF10BCEB502F0ED20D205FE7002AFBD194F85C00D4F85D2040EA02206062C5
:202C60008800EDE74800EBE74FF0FF30C4E903904F46032E31D16771B4F860000123421905
:202C80006261607804F1300100F076FC28BBB4F82E02A0F52A4155391FD194F83000D4F84C
:202CA000311040EA01201349884216D194F81402D4F8151240EA01200F4988420DD194F80F
:202CC0001C02D4F81D1240EA0120E06094F81802D4F8191240EA0120206105492670091FDB
:202CE0000888401C0880E080E76227712EE70000B436002052526141727241618269891EA2
:202D0000921E8A4201D800207047826A807801FB002070472DE9F0410F00064606D000F068
:202D2000FFFF022809D20120BDE8F081F46814B1B069A04205D8012403E0B1698142F3D8B0
:202D40003C462546B0696D1CA84202D80225022C0AD32946304600F0E3FF38B1411CE3D03E
:202D60000128E1D0A542EDD10020DDE76FF070422946304601F0F6F930B957B12A4639463A
:202D8000304601F0EFF920B101280BD001252846CAE7F5603069411CF9D0401E30610120A6
:202DA0007071F4E74FF0FF35F1E700002DE9F84F884682460D6800E06D1C28782F28FBD079
:202DC0005C28F9D00024DAF81C702646A85D761C202818D32F2816D05C2814D0C82C32D251
:202DE000C0B2012100F0F6FE5FEA00092BD0B9F1800F04D2014667A0FFF76EFE18BB27F85D
:202E00001490641CE2E7AA19C8F80020202801D2042516E0002514E007EB440030F8020C63
:202E200020280DD02E280BD06CB1002027F814000B222021DAF8180001F081F8002606E0FE
:202E4000641E002CE8D10620BDE8F88F761C37F816002028FAD02E28F8D01EB145F00305A6
:202E600000E0641E2CB107EB440030F8020C2E28F7D1002080464FF0080B009037F81690EC
:202E8000761CB9F1000F24D0B9F1200F04D0B9F12E0F04D1A64202D045F00305EEE7009826
:202EA000584501D2A6421AD1BBF10B0F0FD0A64201D045F003050CD84FF0080000904FEA40
:202EC000886026464FF00B0B4FEA1068D6E745F00305DAF818000178E52937D038E0484680
:202EE000B9F1800F0CD3002100F074FE90B12C4945F00205084410F8800C5FEA000904D03F
:202F0000014628A0FFF7E8FD38B14FF05F0945F0030512E045F00205F7E7A9F141001928D2
:202F200002D848F0020808E0A9F16100192804D8413048F001081FFA80F9DAF8182000998E
:202F400002F801900098401C009097E705210170BBF1080F03D14FEA88604FEA1068C8F329
:202F60008100032803D06FEA0801890701D145F00205A90709D408F00301012901D145F018
:202F80001005012801D145F00805DAF81800C572002059E7222A3A3C3E3F7C7F0000000024
:202FA000695600082B2C3B3D5B5D000000E0401E0028FCD1704700002DE9F84F0546002110
:202FC00000F084FA002879D14FF0FF0BD9462969286801F091F806000ED16C69207850B1BA
:202FE000E17AE52801F03F0103D00A0705D50F2909D0FF204DE0042672E00F2903D0B9F1EC
:20300000000F4BD04FE0E96981B3420606D594F80DB020F04000EA8881462A84484536D19A
:20302000627B5A4533D100912078A04620F04000401E00EB80010027DFF8ACA001EBC006EB
:20304000012400BF1AF8071001EB0800008874B100F0DCFD0446C82E19D2009830F81600F8
:20306000761C00F0D3FDA04211D104E02FE0A0F57F41FF390BD17F1C0D2FE3D398F80000C1
:20308000400608D53CB1009830F8160018B1FF20C0B281461DE0A9F10100F9E7204601F05A
:2030A0003DF958451CD04FF6FF702884A8694FF0FF09C17AC9070CD10A2102E011E0491E4C
:2030C00006D314F8012B10F8013BD21AF7D000E032B10021284600F009F806003FF477AF46
:2030E0003046BDE8F88F00005C5600082DE9F0410446C0880F46401C0604360C2DD0206918
:2031000058B331075ED1401C2061E168206829B18278521E12EA161F04D053E00089B04298
:203120001BD94FE000F0FCFD054601281AD9681C33D020688169A9423ED877B1E168FFF7BB
:20314000E9FD05000CD0012D0CD0681C25D00021206800F0D1FF00BB06E00420BDE8F081E1
:203160000720FBE70220F9E720684FF400723030002100F0E4FE29462068FFF7BFFD216882
:2031800000274FF00108C8620FE000BF80F804800021206800F0B0FF08B10120DEE720687D
:2031A000C16A491C7F1CFFB2C16220688178B942ECD8C16AC91BC162E56029462068FFF76C
:2031C0009DFD2061E68006F00F013022206802EB4111084460610020C0E700002DE9F05F16
:2031E000FF240546274604264FF6FF794FF0000A61E0286800F080FF060060D16869017803
:2032000061B1C27AE52902F03F0205D02E2903D0130705D50F2A07D0FF243EE004264EE083
:203220000F2A01D0B4BB3FE04A0605D5477B21F04001EA880C462A84A1422CD1417BB942AF
:2032400029D10178DFF880B001F03F01491E01EB810202EBC1010022D5F81C800126CC467A
:203260001BF8023003441B8836B1C82913D228F811301E46491C01E063450CD1521C0D2A2D
:20328000EED30078400603D5C82904D228F811A0641E01E00CE0FF24E4B200212846FFF7B2
:2032A00025FF060007D00AE001F038F8B84208D0A5F8209005E0296900299AD10EB1C5F85C
:2032C00010A03046BDE8F09F5C5600082DE9FF5F04460C22D4E906763946684600F026FE74
:2032E0009DF80B00C00719D00020F8720125E0612B4632466946384600F0CEFC2046FFF761
:203300005BFE18B96D1CADB2642DF1D3642D0BD004280AD19DF80B00F872E6619DF80B00E2
:20332000800711D5002005E0072004B0BDE8F09F401C80B236F810100029F9D119300D21C6
:20334000B0FBF1F087B200E001270021204600F0BDF80028E9D10026B0462169206800F074
:20336000CBFE05000BD160690078E52808D038B1002601212046FFF7B9FE0500EDD078E01F
:203380000EB9B4F80680761CB6B2BE42F1D1012F56D94146204600F099F8050069D1A06963
:2033A00000F0BCFF7F1E1FFA87FB03902169206800F0A2FE05005CD16169D4F81C900398E6
:2033C00048730F20C8720020087388760BF0FF0AC876AAF1010000EB800202EBC005002310
:2033E0004FF6FF7E244E4A1C01E0604503D039F815006D1CF446F75CC85516F80380070ABF
:2034000008F8027000B960465B1C0D2BEDD3704502D039F8150008B94AF0400A81F800A041
:2034200021680120087100212046FFF75FFE05001FD1ABF101001FFA80FBBBF1000FB5D128
:203440002169206800F058FE050012D1666920220021304600F073FD0B223046A16900F087
:2034600065FDA069C07A00F018003073216801200871284659E700005C5600082DE9F0412A
:20348000018C0446C588A1F57F40FF3800D12946204600F01BF8002816D1E5260127216907
:2034A000206800F029FE60B961690E7021680F71E188A94208D200212046FFF717FE00281B
:2034C000EDD0042800D10220BDE8F08170B50D46C1808168044601291ED0206882698A42B7
:2034E0001AD921B90278032A04D1416A11B18078060117E0E1600189A9420DD9406A17E0E3
:20350000206800F00DFC0146401C07D0022903D320688069884203D8022070BD012070BDFC
:20352000A81B85B2B542EBD2E1602068FFF7E6FB00EB1510206105F00F013022206802EBE0
:20354000411108446061002070BD000030B1012801D0022802D00248007870470020704798
:20356000AE36002028B1012801D0022801D00420704700207047000070B51C4613460D4694
:2035800008B1042070BD012C0BD0224619460948FEF712FB620207492846FCF705FE0020C7
:2035A00070BD012219460348FEF706FB4FF40072F1E700009CB0002028B1012802D0022824
:2035C00001D00120704700207047000070B51C4608B1042070BD55024FF40076012C0BD0C2
:2035E00062020A48FCF7E0FD2346324629460748FEF71EFC002070BD32460448FCF7D4FDC2
:20360000324629460148FEF7B7FBF3E79CB0002010B5044600F03CFA002801D100212160BC
:2036200010BD000010B5022801D30B2010BD064B002453F8202002B1147001B10C7043F862
:203640002010002010BD0000B43600202DE9F7478DB04FF00009074602F01F06C0F80090BE
:2036600026F0010269460EA8FFF73EFA050009A806904448079004D168460E9900F0D8FA43
:203680000546059C0DB904B9062516F01C0F4DD055B1042D03D16846FFF718FE0546059C91
:2036A00046F0080645B169E0E07A10F0110F47D1700701D5082561E0300747D500F08CFB70
:2036C000A073010AE173010C2174000E607484F80B9084F81C9084F81D9084F81E9084F8E6
:2036E0001F90A28A618B84F81A9084F81B9062F31F4184F81490884684F815900099012038
:2037000008715FEA08011FD00098D0F82CA000F0A6FD050032D10099A8F10100C860514636
:20372000009800F0E9FC05000CD027E035BBE07AC10601D5042521E0B10703D5C00701D0FB
:2037400007251BE0300701D546F020060098C06AC7E90704BE71A18A608B61F31F403861CB
:20376000207FD4F81D1040EA0120C7E90290C7F81890009838600098C088B88010B0284647
:20378000BDE8F0879CB4002013B584B004460146002205A8FFF7A8F900281CD1C4F818D0F1
:2037A0000E48E0612046059900F042FA80B9606938B1C17AC9060DD5818A408B61F31F40E2
:2037C000A06020680021C088A0802046FFF77EFE042800D1052006B010BD00009CB40020EB
:2037E0002DE9F05F0F46002119600446818898461546006800F022FE002803D1A079010655
:2038000002D50220BDE8F09FC00708D0D4E90201081A04F12409854200D9054683E0072063
:20382000F0E7A068C10566D122689178491E01EA502111F0FF0609D118B31046616900F09B
:203840006FFA02281FD3411C4DD0606161692068FFF754FAB8B100EB060B5FEA552A29D0EC
:20386000206806EB0A0281788A4201D9A1EB060A0AF0FF0340785A463946FFF77DFE90BBF9
:2038800006E02069DDE7A07940F08000A071B8E7A07940060BD5A169A1EB0B00504506D22F
:2038A00007EB40204FF40072494600F03FFB4FEA4A262EE0A2695A451BD0A07940060AD5BE
:2038C0002068012349464078FFF780FE58B9A07920F04000A071206801235A464078494663
:2038E000FFF74AFE28B1A07940F08000A071012088E7C4F818B02089C0F30800C0F5007634
:20390000AE4200D92E46011924313246384600F00DFBA06837443044A060D8F800008119AC
:20392000AD1BC8F80010002D7FF47BAF002069E7FEB50E4604468188006800F07FFD00285F
:2039400018D1C6B1C4F818D00E48E0612046FFF745FC0025042813D000280BD1314620461A
:2039600000F03CFA00212046FFF7C0FB042801D100202561FEBD00212046FFF7A7FDFEBDAE
:203980002561EBE79CB4002033B59DB00C46012210A91DA8FFF7A8F8002853D1109801901C
:2039A00019A816903948179010A81D9900F040F9002847D11598E8B300F10B0115220AA873
:2039C00000F0B4FA242210A901A800F0AFFA214601A800F02DF970B3042833D101A8FFF7F0
:2039E00075FC00282ED1069C13220DF12A0104F10D0000F09BFA9DF82800012540F0200075
:203A0000E0721098057103991298884235D0E07AC00632D5A08A618B60F31F410198FFF7A2
:203A20006DF9010012D0019800F066FB01995031002801E005E007E004D148782E2807D0A1
:203A40001BE004201FB030BD0820FBE70220F9E701980078032806D1019A0398526A9042A8
:203A600001D1002000E003988876020ACA76020C0A75000E48750198057110A8FFF7FEFC80
:203A80000028DFD1109800F056FCDBE79CB4002070B504468188006800F0D0FC00280ED18F
:203AA000A1798A060BD548060ED52068012304F124014078A269FFF789FD08B1012070BD3F
:203AC000A07920F04000A071E169206800F014FB0028F4D1256AE87A40F02000E872207B78
:203AE0002877A089000A6877E068000CA877E068000EE877207CA876208A000AE876206998
:203B0000000C28752069000E687500F065F9A875010AE975010C2976000E6876A07920F0F3
:203B20002000A0712168012008712068BDE8704000F001BC11B595B00122694615A8FEF718
:203B4000D3FF00281BD112A80690214807906846159900F06DF8002811D1059989B1CA7A58
:203B6000D20700D007208A8A4C8B002862F31F4405D1C87AC00618D5022C04D2022016B0F3
:203B800010BD0620EFE72422694609A800F0CEF9022109A80B94FFF799FC0028EFD109A868
:203BA000FFF71CFB88B10428E9D16846FFF766FC0028E4D12CB12146009800F050FB0028B7
:203BC000DDD1009800F0B7FBD9E70720D7E700009CB40020802804D30B4A49B1FF2801D919
:203BE0000020704702EB4000A0F580700088704732F81130834203D0491C89B28029F7D3E7
:203C00008031C8B270470000EA5600080021064B00E0491C33F81120002A04D08242F8D1DC
:203C2000024830F811007047EA570008CA59000873B50446019801782F2901D05C2901D1D2
:203C4000401C01900025A56001980078202805D200212046FFF73AFC65617CBD01A920465B
:203C6000FFF7A4F80028F8D12046FFF7A5F9A169C97A28B10428F0D14907EED405207CBD44
:203C80004907FCD46069C17AC906F7D5818A408B61F31F40A060E1E77CB516461C460546DA
:203CA0000B2200F043F9052C09D9600836F8021B00EBC430084484B230880028F5D10721B6
:203CC0004FEA0D0304F00F003030392801D9C01DC0B25854491E2409F4D17E20585400223D
:203CE00000E0521C8A4202D2A85C2028F9D1082902D2585C491C00E02020A854521C082AE6
:203D0000F5D37CBD00B593B0FDF788FE6846FDF723FE0020FFF71AFCFEF79AFE13B000BD34
:203D20002DE9F0410D460446022902D3A069A84202D80120BDE8F0812078012804D00228DC
:203D400026D0032837D12FE0206A05EB550600EB5621204600F0D0F968BBC6F3080020448D
:203D6000761C90F83070206A00EB5621204600F0C3F900BBC6F308002044E90790F8300003
:203D800047EA002001D00009D4E7C0F30B00D1E7206A00EB1521204600F0AEF958B9E8B274
:203DA00004EB4000008EC5E7206A00EBD511204600F0A2F910B14FF0FF30BBE740F2FF103C
:203DC00000EA8500204490F83010D0F8310041EA002020F07040ADE7002070472DE9F04192
:203DE0000D4601F109040169C1B3416900230E7BCA5C202A0FD0052A00D1E522370705D5CF
:203E0000A2F14107192F01D82032D2B25B1C04F8012B082BECD30A7A202A13D02E2204F842
:203E2000012B0823CA5C202A0CD0F70605D5A2F14107192F01D82032D2B25B1C04F8012B97
:203E40000B2BEFD3CA7A2A720A7FD1F81D3042EA03222A600A8BAA80C98AE9804FF000084E
:203E600084F80080AE69002E1ED0E96900291BD001690024B1B1018CA1F57F42FF3A11D0BF
:203E8000C7690BE00021FFF7A5FE18B1E969491EA14201D8002405E03055641C37F8020BC5
:203EA0000028EFD106F80480BDE8F081FDF7A2F9FCF794FDFEF71EFC144E3046FFF776F824
:203EC0001348FDF799F80020FCF79AFE0020FDF763F84FF4FC60FDF795F80020FCF790FE27
:203EE0000C48012404600C48FFF760F80BA250216E20FCF7DDFE0C4D2C603046FFF756F82A
:203F000000202860FFF7FEFEFEE70000FFFF2F0070360020B8812242FFFF0F00626F6F74D1
:203F2000696E672E2E2E00008801214204E000BF11F8013B00F8013B521EF9D27047C9B244
:203F400001E000F8011B521EFBD270472DE9F05F5F4C00265D48A662E061DFF87891DFF89D
:203F600078A1667047143A46FF215A48FCF7BAFB574B584930333A46A1F50970FFF730FCB6
:203F8000A07099F80000E2784946904206D16278521CD2B26270052A7ED800E06670E070C5
:203FA000D4E90402104303D10868206148686061E1624FF40072E069FEF702FAE06900F545
:203FC0008060E061A56A6D1CA562E088A0808046606AFCF730FA8346A802FCF72CFA5146C9
:203FE000FCF741F95946FCF774F9FCF756FA3B4A3B4BFCF7AEF9FCF737FA80B2E080B0F552
:020000040800F2
:20400000A07F0BD2454606E0A9B2012314226E20FCF7C2FE6D1CE0888542F5D3606AFCF700
:204020000AFA0546A06A8002FCF705FA5146FCF71AF92946FCF74DF9FCF702FA80B2E080ED
:20404000632802D96320E0800EE00A280CD20A21B0FBF1F201FB12011D48303134300170B6
:204060002521417086700FE083B20A22B3FBF2F101F13005164802FB113134303031057074
:20408000417025218170C670114A822134328C20FCF70EFE206B00E005E0B842BFF463AFE4
:2040A0006078052805D90FA264215020FCF700FEFEE70EA282218C20FCF7FAFDFDF796FA34
:2040C000BDE8F05F0B48FEF771BF00000070000810000020243B00200000C8429A999999DE
:2040E0009999094053442045525200003130302500000000FFFF0F002DE9F041C56A0F4617
:204100000446BD422BD0217904F13008D9B1607801232A464146FFF759FAE0B90020207184
:20412000D4E907100844A8420DD9E67809E0E0690123054460782A464146FFF747FA761EF8
:20414000F6B2012EF3D857B1607801233A464146FFF712FA10B10120BDE8F081E76200204F
:20416000FAE700002DE9F04717460D460446022902D3A069A84202D80220BDE8F087217873
:2041800007F0FF084FF00109012908D0022938D0032947D05FF0020084F80490EDE7206AA1
:2041A00005EB550600EB56212046FFF7A5FF0028F2D1C6F3080020443030E90703D00178A6
:2041C00068F31F1100E03946017084F80490206A761C00EB56212046FFF78EFF0028DBD139
:2041E000C6F3080121443031EA0702D0C7F3071205E00A78C7F3032302F0F0021A430A709F
:20420000CAE7206A00EB15212046FFF775FF0028C2D1E9B204EB41013A0A81F8308081F805
:204220003120B9E7206A00EBD5112046FFF764FF0028B1D140F2FF1101EA85010A19303291
:204240004FF07043D2F8011003EA0121394311700B0A53700B0C9370090ED1709CE72DE9A2
:20426000F0410E460746022918D3B869B04215D900254FF001081DE031463846FFF750FDB3
:2042800004001AD0012C09D0601C09D0002231463846FFF767FF05000FD103E002250CE087
:2042A00001250AE03869411C03D0401C386187F805802646B869B042DED82846BDE8F0816B
:2042C00010B50020FCF79CFC0AA250215A20FCF7EFFC0BA25A217820FCF7EAFCFDF70CFF61
:2042E0000AA25A217820FCF7E3FC0B490120487010BD000053504920466C61736800000039
:2043000045726173696E672E2E2E0000457261736520446F6E650000803600200146002077
:204320000B22430803EBC01011F8013B521E1844C0B2F6D170472DE9F04104460021FFF79E
:20434000DBFE050050D12078032846D16079F0B3002604F130004FF4007231460746E662FC
:20436000FFF7EDFD552084F82E02AA2084F82F02522084F8300084F83100612084F83200CB
:20438000412184F83310722284F8142284F8152284F8161284F81702206984F81802010AA0
:2043A00084F81912010C84F81A12000E84F81B02E06884F81C02010A84F81D12010C000E47
:2043C00084F81E1284F81F026078012300E004E039466269FFF7FAF866710022607811467A
:2043E000FFF7C0F800B101252846BDE8F08100000E4C012525600E4F3846FEF7D7FD0026E5
:2044000026603846FEF7D2FD25603846FEF7CEFD266085F3138807480168074A01F4E06139
:2044200011430160BFF3408FFEE7000088012142FFFF1F000CED00E00400FA0510B520B1E6
:20444000027812B1C2888A4201D0092010BD4078FFF7B2F8C007F9D0032010BD000000006A
:2044600000000000000000000000000000000000000000000000000000000000000000003C
:20448000000000000000000000000000000001800180018001800180018001800180018093
:2044A0000180018001800180000000000180018000000000000000000000000000000000F6
:2044C0000330033003300330033003300000000000000000000000000000000000000000AA
:2044E000000000000000000000000000000000000630063006300C600C607FF87FF80C60E8
:204500001CE018C07FF87FF818C018C0318031803180000000000000000000000000010015
:2045200007C01FF0397031383118310019001F8007E0017001383118311839181D300FF0A1
:2045400007C0010001000000000000000000000000007018D83088308860886088C088C0EA
:20456000D9807180031C0336062206220C220C2218221836301C0000000000000000078092
:204580000FC01CE0186018600CC00F800F001F00398C70CC60786038603860FC3FCE0F84D2
:2045A0000000000000000000000000000000000001800180018001800180018000000000F5
:2045C00000000000000000000000000000000000000000000000000000000000000000409B
:2045E00000C0018003000300060006000C000C000C000C000C000C000C000C0006000600FC
:2046000003000300018000C00040000000000400060003000180018000C000C000600060C4
:2046200000600060006000600060006000C000C001800180030006000400000000000000AB
:2046400000000000000000000000030003001B601FE007800CC01CE000000000000000008B
:204660000000000000000000000000000000000000000000000001800180018001800180B5
:204680003FFC3FFC018001800180018001800000000000000000000000000000000000001F
:2046A000000000000000000000000000000000000000000000000000000000000000018079
:2046C000018000800080010000000000000000000000000000000000000000000000000058
:2046E0003FFC3FFC0000000000000000000000000000000000000000000000000000000044
:20470000000000000000000000000000000000000000000000000000000000000000030096
:2047200003000000000000000000000000000030003000600060006000C000C000C001C0F5
:2047400001800180018003000300030006000600000000000000000000000000000007C0FA
:204760000FE01C70183030183018301830183018301830183018301818301C700FE007C064
:2047800000000000000000000000000000000080018003800F801980118001800180018059
:2047A00001800180018001800180018001800180000000000000000000000000000007C02A
:2047C0001FF0183030183018001800180030006000C00180030006000C0018003FF83FF856
:2047E000000000000000000000000000000007801FE01870303030300030006003C003E0B5
:204800000030001800183018301818301FE007C0000000000000000000000000000000306A
:20482000007000F000F001B00330063006300C30183030303FFC3FFC0030003000300030BE
:2048400000000000000000000000000000001FF01FF018001800300037C03FE038700038E4
:204860000018001800183018383018701FE007C0000000000000000000000000000003E00F
:204880000FF01C3818181800300033C037F03C70383830183018301818381C700FE007C0AD
:2048A00000000000000000000000000000003FF83FF800300060006000C001C00180038015
:2048C00003000700060006000E000C000C000C00000000000000000000000000000007C0C9
:2048E0000FE01C701830183018301C600FE00FE0183030183018301830181C301FF007C081
:20490000000000000000000000000000000007C00FE01C70383030183018301838381C7811
:204920001FD8079800180030003038701FE00F800000000000000000000000000000000033
:20494000000000000000000001800180000000000000000000000000000000000180018053
:20496000000000000000000000000000000000000000000000000000018001800000000035
:20498000000000000000000000000000018001800080008001000000000000000000000014
:2049A00000000000000000000008003801F007C01F0018001F0007C001F0003800080000B1
:2049C0000000000000000000000000000000000000000000000000000000000000001FF8C0
:2049E0000000000000001FF8000000000000000000000000000000000000000000000000A0
:204A0000000000000000000010001C000F8003E000F8001800F803E00F801C001000000052
:204A2000000000000000000000000000000007C01FF018303018301800180030006000C060
:204A40000180030003000300000000000300030000000000000000000000000000000000C6
:204A600007E018182004439444528822902290229022904488C8473040022004181807E0B6
:204A8000000000000000000000000000000001C001C0036003600360063006300C180C18B7
:204AA0000C181FFC1FFC380E300630066003600300000000000000000000000000003FC025
:204AC0003FF0303030183018301830303FE03FF03018300C300C300C300C30183FF83FE0EB
:204AE000000000000000000000000000000003E00FF81C1C380C300E60066000600060008C
:204B00006000600060006006300E380C0FF807E000000000000000000000000000007FC060
:204B20007FF0607060186018600C600C600C600C600C600C600C6018601860707FF07FC0E4
:204B400000000000000000000000000000003FFC3FFC300030003000300030003FF83FF881
:204B60003000300030003000300030003FFC3FFC00000000000000000000000000001FFC84
:204B80001FFC180018001800180018001FF81FF81800180018001800180018001800180094
:204BA000000000000000000000000000000007F01FFC3C1E70066007E003C000C000C07F0A
:204BC000C07FC003E003600370033C0F1FFC07F00000000000000000000000000000300C81
:204BE000300C300C300C300C300C300C3FFC3FFC300C300C300C300C300C300C300C300CF7
:204C000000000000000000000000000000000180018001800180018001800180018001800B
:204C200001800180018001800180018001800180000000000000000000000000000000600C
:204C400000600060006000600060006000600060006000600060186018601CE00FC00780F2
:204C60000000000000000000000000000000600C60186030606060C06180630066006E00C8
:204C80007B00718060C0606060306018600C600600000000000000000000000000001800D6
:204CA000180018001800180018001800180018001800180018001800180018001FF81FF876
:204CC00000000000000000000000000000007007780F780F780F6C1B6C1B6C1B6C1B663313
:204CE00066336633636363636363636361C361C30000000000000000000000000000300CE6
:204D0000380C3C0C3C0C360C360C330C330C318C30CC30CC306C306C303C303C301C300C70
:204D2000000000000000000000000000000007E01FF8381C700E6006C003C003C003C00331
:204D4000C003C003C0036006700E381C1FF807E000000000000000000000000000003FF0A5
:204D60003FF8301C300C300C300C300C30183FF83FE03000300030003000300030003000D2
:204D8000000000000000000000000000000007E01FF8381C700E6006C007C003C003C003CD
:204DA000C003C003E00760C670FC383C1FFC07EF00030000000000000000000000007FF0FD
:204DC0007FF8601C600C600C600C601C7FF87FE060C06060603060186018600C600C6006AC
:204DE000000000000000000000000000000007C01FF0383030183018300038001FC007F0A7
:204E00000078001C600C600C700C38381FF007E000000000000000000000000000007FFEC7
:204E20007FFE01800180018001800180018001800180018001800180018001800180018066
:204E40000000000000000000000000000000300C300C300C300C300C300C300C300C300C36
:204E6000300C300C300C300C300C18181FF807E00000000000000000000000000000C00612
:204E8000600C600C600C301830183018183018301C700C600C600EE006C006C00380038082
:204EA0000000000000000000000000000000C006C386C386C38666CC66CC66CC66CC66CC57
:204EC00066CC36D836D836D834583C781C701C700000000000000000000000000000F00727
:204EE000300E180C0C180E30067003E001C001C003C007600E300C381818300C7006E0079E
:204F00000000000000000000000000000000C0036006300C381C1C180C30066007E003C058
:204F20000180018001800180018001800180018000000000000000000000000000003FFE2C
:204F40003FFE0006000C00180030006000C00180030006000C001800300060007FFE7FFE62
:204F6000000000000000000000000000000007C007C0060006000600060006000600060079
:204F80000600060006000600060006000600060006000600060007C007C0000000000C0035
:204FA0000C00060006000600030003000300038001800180018000C000C000C000600060C4
:204FC000000000000000000000000000000007C007C000C000C000C000C000C000C000C003
:204FE00000C000C000C000C000C000C000C000C000C000C000C007C007C0000000000000E3
:205000000380038006C006C006C00C600C60183018300000000000000000000000000000D0
:20502000000000000000000000000000000000000000000000000000000000000000000070
:205040000000000000000000000000000000FFFFFFFF0000000000000000000000007000E4
:2050600038001C000600030000800000000000000000000000000000000000000000000053
:205080000000000000000000000000000000000000000000000000000FC01FE0383030307A
:2050A00000F00FF01F303030303038F01FF00F18000000000000000000000000000018007C
:2050C00018001800180018001BC01FF01C301818181818181818181818181C301FF01BC0E4
:2050E00000000000000000000000000000000000000000000000000003C00FE00C7018303A
:20510000180018001800180018300C700FE003C000000000000000000000000000000018A1
:20512000001800180018001803D80FF80C381818181818181818181818180C380FF803D8A3
:2051400000000000000000000000000000000000000000000000000003C00FF00C30181821
:205160001FF81FF8180018001C180C380FF003E0000000000000000000000000000001F086
:2051800003F00300030003000FE00FE0030003000300030003000300030003000300030017
:2051A00000000000000000000000000000000000000000000000000007B01FF01870303041
:2051C0003030303030303030303018701FF007B00030303038601FE00F80000000001800D3
:2051E00018001800180018001BE01FF01C3818181818181818181818181818181818181841
:2052000000000000000000000000000000000300030000000000000003000300030003007C
:20522000030003000300030003000300030003000000000000000000000000000000030053
:20524000030000000000000003000300030003000300030003000300030003000300030027
:205260000300030003001F001E0000000000300030003000300030003030306030C0318067
:20528000330036003F00398031C030C03060303000000000000000000000000000000300D9
:2052A0000300030003000300030003000300030003000300030003000300030003000300BE
:2052C0000000000000000000000000000000000000000000000000003E3CFF7EE3C7C183E9
:2052E000C183C183C183C183C183C183C183C183000000000000000000000000000000008E
:20530000000000000000000019E01FF01C3818181818181818181818181818181818181881
:2053200000000000000000000000000000000000000000000000000003C00FF00C3018183F
:20534000181818181818181818180C300FF003C0000000000000000000000000000000005F
:2053600000000000000000001BC01FF01C301818181818181818181818181C301FF01BC0A1
:2053800018001800180018001800000000000000000000000000000003D80FF80C3818183F
:2053A000181818181818181818180C380FF803D8001800180018001800180000000000005F
:2053C00000000000000000000DE00FC00E000C000C000C000C000C000C000C000C000C0097
:2053E00000000000000000000000000000000000000000000000000007C00FC01C70183043
:205400001C000FC003E0003018301C700FE007C00000000000000000000000000000000004
:2054200001000300030003000FE00FE00300030003000300030003000300030003E001E0A8
:2054400000000000000000000000000000000000000000000000000018181818181818188C
:20546000181818181818181818181C380FF807980000000000000000000000000000000042
:20548000000000000000000030181830183018300C600C600C6006C006C006C00380038050
:2054A00000000000000000000000000000000000000000000000000083828382C386C6C60D
:2054C000C6C6C6C66C6C6C6C6C6C38383838383800000000000000000000000000000000DC
:2054E0000000000000000000381C1C380C30066003C003C003C003C006600C301C38381C0C
:20550000000000000000000000000000000000000000000000000000180C0C180C180E18F9
:205520000630063007300360036001C001C001C00180018003800F000E000000000000001D
:2055400000000000000000003FF83FF80030006000C00180030006000C0018003FF83FF871
:20556000000000000000000000000000000000C001800300030003000300030003000600D2
:2055800006000C0006000200030003000300030003000300018000C000000000000001801D
:2055A0000180018001800180018001800180018001800180018001800180018001800180DB
:2055C00001800180018001800180000000000600030003800180018001800180018000C075
:2055E00000C0006000C000800180018001800180018001800300060000000000000000003C
:20560000000000000000000000000000000000000F081FF810F0000000000000000000005C
:2056200000000000000000000000000000007FFE7FFE7FFE7FFE7FFE7FFE7FFE7FFE7FFE05
:205640007FFE7FFE7FFE7FFE7FFE7FFE7FFE7FFE7FFE7FFE7FFE7FFE7FFE000001030507E1
:20566000090E10121416181C1E809A90418E418F804545454949498E8F9092924F994F55A5
:205680005559999A9B9C9D9E9F41494F55A5A5A6A7A8A9AAABAC21AEAFB0B1B2B3B4B5B69E
:2056A000B7B8B9BABBBCBDBEBFC0C1C2C3C4C5C6C7C8C9CACBCCCDCECFD0D1D2D3D4D5D61A
:2056C000D7D8D9DADBDCDDDEDFE0E1E2E3E4E5E6E7E8E9EAEBECEDEEEFF0F1F2F3F4F5F6FA
:2056E000F7F8F9FAFBFCFDFEFF00C700FC00E900E200E400E000E500E700EA00EB00E800FC
:20570000EF00EE00EC00C400C500C900E600C600F400F600F200FB00F900FF00D600DC0041
:20572000A200A300A500A7209201E100ED00F300FA00F100D100AA00BA00BF001023AC00A6
:20574000BD00BC00A100AB00BB009125922593250225242561256225562555256325512534
:2057600057255D255C255B251025142534252C251C2500253C255E255F255A2554256925BE
:205780006625602550256C25672568256425652559255825522553256B256A2518250C2550
:2057A000882584258C2590258025B103DF009303C003A303C303B500C403A6039803A903C4
:2057C000B4031E22C603B50329226122B1006522642220232123F7004822B0001922B7003B
:2057E0001A227F20B200A025A0006100620063006400650066006700680069006A006B0055
:205800006C006D006E006F0070007100720073007400750076007700780079007A00A1002A
:20582000A200A300A500AC00AF00E000E100E200E300E400E500E600E700E800E900EA004C
:20584000EB00EC00ED00EE00EF00F000F100F200F300F400F500F600F800F900FA00FB001C
:20586000FC00FD00FE00FF00010103010501070109010B010D010F01110113011501170196
:2058800019011B011D011F01210123012501270129012B012D012F01310133013501370178
:2058A0003A013C013E01400142014401460148014B014D014F015101530155015701590140
:2058C0005B015D015F01610163016501670169016B016D016F0171017301750177017A0117
:2058E0007C017E019201B103B203B303B403B503B603B703B803B903BA03BB03BC03BD03A7
:20590000BE03BF03C003C103C303C403C503C603C703C803C903CA0330043104320433045B
:205920003404350436043704380439043A043B043C043D043E043F0440044104420443046F
:205940004404450446044704480449044A044B044C044D044E044F0451045204530454044B
:20596000550456045704580459045A045B045C045E045F0470217121722173217421752109
:2059800076217721782179217A217B217C217D217E217F2141FF42FF43FF44FF45FF46FF65
:2059A00047FF48FF49FF4AFF4BFF4CFF4DFF4EFF4FFF50FF51FF52FF53FF54FF55FF56FF0F
:2059C00057FF58FF59FF5AFF00004100420043004400450046004700480049004A004B0067
:2059E0004C004D004E004F0050005100520053005400550056005700580059005A002100A9
:205A0000E0FFE1FFE5FFE2FFE3FFC000C100C200C300C400C500C600C700C800C900CA00A9
:205A2000CB00CC00CD00CE00CF00D000D100D200D300D400D500D600D800D900DA00DB003A
:205A4000DC00DD00DE007801000102010401060108010A010C010E011001120114011601A6
:205A600018011A011C011E01200122012401260128012A012C012E013001320134013601A6
:205A800039013B013D013F0141014301450147014A014C014E01500152015401560158016E
:205AA0005A015C015E01600162016401660168016A016C016E017001720174017601790145
:205AC0007B017D0191019103920393039403950396039703980399039A039B039C039D0368
:205AE0009E039F03A003A103A303A403A503A603A703A803A903AA0310041104120413047A
:205B00001404150416041704180419041A041B041C041D041E041F0420042104220423048D
:205B20002404250426042704280429042A042B042C042D042E042F04010402040304040429
:205B4000050406040704080409040A040B040C040E040F04602161216221632164216521A7
:205B600066216721682169216A216B216C216D216E216F2121FF22FF23FF24FF25FF26FFE3
:205B800027FF28FF29FF2AFF2BFF2CFF2DFF2EFF2FFF30FF31FF32FF33FF34FF35FF36FF2D
:205BA00037FF38FF39FF3AFF00006D6B7374667432382E62696E006D6B7374667432382E6C
:205BC0006375720062616B5F706963006D6B735F70696300F45B000800000020BC36000063
:205BE0004E060008A46B0008BC36002074830000E6290008D200015204081006AA5B0008BE
:205C0000B704021900012005243B00202C03143025200004ADFFFF000100051B30000078D9
:205C20000302213003D5066005700000F8030221708404207DC0C001E1E003E3E003C3C01A
:205C40000787800707000E0E000C0C001818001010002020220004100300C00370047FFF76
:205C6000F80300041606018003A1270004130C0300030529AA41031010FE0003B3800631ED
:205C8000C00E30C00C30E01C0322310310081E31C01E30000F03140AB00007F00003F00076
:205CA000018330057E00003F03100837800033C00031032133623E0304121E3C30E01830B6
:205CC000C01831C00C318006370001FCDDFD1403100F1E00603100406180C0408080C0C1A3
:205CE000032200031031C300C0C200C0C600C0C400C0CC00C0C8006088006198003311E0D3
:205D00001E3330002618006618004408004C0C00CC0C008C0C0103220C03320203080D2F82
:205D20000604080406180C03300801E0D311FC18071C00060C000446D10310041C000E1B63
:205D4000043F1F380007700007C0000707F80F80E01B80C033C0C071C0C061E0C060E08036
:205D6000E0F080E07180E07980E03D00E01F00F01E00700F02780F823C1BC41FF1FC07C087
:205D8000F01164051C00003E7630051F0000070330050600000C1B0C056E38000060E5030A
:205DA0002F1000B70411771007C00001800003033191620E9441977103021B700392302D72
:205DC000413C320C4B3206E8115A11631169216F32207BED1F043A605A62183B32063511B0
:205DE00095119B3301C03B32E0AD7175021B3803719C32603922E045D1E6321C6F0631303C
:205E00007AC16C201530381878387C7E30FC3F11F80F93E001D700007C031109110F1115CF
:205E2000E00A7E18FC7C383C30381CB40D49AF05011B034D92040D2FB2050D7B83060D6A37
:205E4000300310047FFFFC0302A800016E1EC0054D50040E261EF3033E0862033610F04D6B
:205E6000FC033E405B031D9C031D6A031DA5033004000002033E060209021A0C32C2013265
:205E8000021B04320D20A0053018F8000386000703000E01800C01C01C00C01800C03800C2
:205EA000E00300051F6070007003112741301139113F10040C01804B230603572D73080D31
:205EC0002E1E0541F91D15060E1EF86B04012E030C062F7C0007FFC0C0061C05FC000307CA
:205EE0002B081005801801C003651A33E03C035E1CE1043EC0E1042E802E036E0E28035E07
:205F000070FE046DFB042C0C200C002018006030006020B2085103013490370603AD25B062
:205F200033E01E034E0E6E052D54064D5706318A15447E0F03068DC80550051800703C030D
:205F40004660B915B63F060770080D3091095D24043E0F30041E17DC082010000027000006
:205F6000670000C7000087000187B11202B46C14070004070008070018070010070030075D
:205F80000060072205031207000308042F8000FF4140040FFFE0033E0812037103721003D0
:205FA0004409FE0013FF001703803E2E18A606AEF06607F51D16E0FB19D6063407201C0838
:205FC0007E00018380030312031006C00C03C0180359E15D400A2173DC127E0071FF80771C
:205FE00083C07601C07C00E07800E063032E3066032103194011B41C040C00C0E60A2B03FA
:020000040800F2
:20600000830D0D2EB30630041FFFF00319BB100A601000C03000802001033DF6070D1080EE
:20602000049218A68E60D4075DDA07F1030E30001F0A1F01FE7D041D3204558C6238EA3A19
:2060400038A019DC1C0B1F00E00F81C007E380036A0B100FFE00063F000C0F801C07C03803
:2060600001E003FC047000F08F0449D01EC0D4040531B01DA60B2C0B0706000C01001C0158
:2060800080380A0515231D07054103AD0D0513F03803C40F01F03C03701F0E700FFC700309
:2060A000F070212D17041D0D05131E03032C04001E06EC0A0F4E03F0310E3A7804710302AC
:2060C0004E78300134937DAF0E0131339E185C0D0D20210A9E2068056DD70B7D5D0A6D0918
:2060E00005A1179E18E60A8D1B0BE1194D2E053E70340B054AAF0D1CF1080D4F0F096E1011
:20610000170C021D0EF0A50905153991177DE3060E2E10ED031EFC83073F000E4D071C048F
:206120003000E05A033E604E0330057800707C035E3C36071C04E00003110E2E8054069EC8
:206140001C2C050D13E6100D2EE0100D10A0053C06C180030060A1072E30E81010090ED80C
:2061600018319838618C03200C30C18C70C18C71818C7183034373030310080C730308736A
:206180000718033C14330F10399B3039FBE038E1CC1C00081C00180EDA062C0703C1E00120
:2061A000FF80F00F052EB13E70A5037DB2116005D800019C0360058C00030E032E0650077A
:2061C00071031DA00810040FFF80062DA9081D660652010334043001E06821031D2B050FF0
:2061E0002FFC0331065C09FFFE001C07801C036D08E1034D85081D4D07200607001FFC002A
:206200000942002732700302123803411B12E036115D0D2F5F04140F3F0800C1F8030078E9
:206220000600380E0018B07C0B1C000C18000C3800043850070D1B350F312A11307608B076
:206240001E0F8A08073281C0B015201005F0001C0EF92D300661FC6260FF06153002A10386
:2062600066301132703945532550231C1E5D052FB076FFAA11873220844E105510931C01F1
:20628000031E030A0815DA41BA6103A20003452032100331A50C052F01E0FFFF001210060E
:2062A000FFFFF01C000316786B31511DF611920466828003180501801FFF6A210991180236
:2062C00019000315B20D2F400B1C05F84003873F096EC0ED0C3F4038940BDC04700020C07C
:2062E00007B1032C0A07FCE001F0E000E060480351036DF60C1D90090C0534E00E01E09051
:20630000097C04FF07FC540C011F030004283FFFE02D1130115D0D31400B0D4D770D9DB293
:20632000110A300F401E012F070D141E0C0144032F30064B042B780CA11E38AE150D1E2172
:206340000E1C04FF8FF809035DF5041DF6033E06FF0320141C001C18001C30001C70001C53
:2063600060001CE0001DF00330091F78001F38001E3C21321E2A3E0E75032D780339EB4DB8
:2063800058054E014F050C042FF0FF83A0052F7FC053130142035F040EA4151E0858052EB2
:2063A0000E5E051D9B0D0D2F81041C05F800FE3C160B81038004702E030370052F06702785
:2063C0000360050470238C033008887023C87021D8037007D07021F070200332E0032260B6
:2063E000030F2FFC4331061C04FC00FEC20410081E00101F001017031004801013031004A9
:20640000C01011031004E0101003301AF010107010107810103810103C10101C10101E10E1
:20642000100E10100703100803901003D01001034004F01000033270031230030E2FFE0204
:20644000093DA0141A83781FC006750F3D2A061E18C91413003803200530001870030219FB
:206460001C0311241127413011391DDF051145114B1004030180572D00150D31E0072DB6E9
:20648000070D1FB3073D9C060C061C03801FFE0094050D3EA0051D7011352034040E006040
:2064A00020C63020021F1C033C2238F01839FC383B1C383E0E301E0E700E07600E07E00743
:2064C00007C0018780007F880003888D190E25F0AD0E5D00095DFD089EF0AD0771036D09E3
:2064E0000936071D4DED037DF0030E130FF003514E0F2FFF80A005100601FC2006076F4D6C
:206500002D0F6EE09A0E6F20703A0A3E3C87111DC8041D761A2D401A127F0D1D99126EC043
:20652000A00F6006F040007060031D59101D1A0A1DE80E0C08303C01C03F030021C0060CF3
:2065400016203FFFF0707070607030607010407010C0701880700885090124030E30032090
:206560000A1FFF015007024820031DA2031E4028081C040F0380BA0C0D3150101EFF100596
:206580002D5C062DAB031D7311620E0360050F00C007035004038180035005C10001C30307
:2065A000600600E20000E6035E74DB1825E17DEF190E3010810D1D10057008FEFC707830C2
:2065C0007038031260031005781C603803423C03101040383CC0387CC03C6EC01C4EC01C1E
:2065E000CE032004801C8E0310091D8F801F87800F0703420003420E03300703000602001B
:2066000004030D2FC0063F83F8BE141DF0031F800765133C14010007830003820003C6008E
:2066200001C40001EC0000EC080D9E787C1A1508100A5C0000DE00008E0001033E0761143E
:206640002D62131F800465135C0401C0081E030F31F0FEF00C1C0507F83C01DB154DA803C4
:206660002DCB1611DE2F0F0322171D18121D2B171008038E0003CC0001033EDCD31DDEF8A1
:206680003F14094DD02C050FFFF80F2F0D3EF088143C07E03001C020036E165F078075150A
:2066A0003E0E9718CE1C2F1C6D7B1B912C2F080F9D0E1D0B07298B1DFC151D3E130E227FCB
:2066C000D00B1D110A11034D0B1C016A0341780D18A91A6E18B4117DF11C5DBC1C7DBF1CAE
:2066E00062804B6EE0BE147D311D9E18F31C713DC2073D0216013DCD010522F80351510120
:20670000690351780D1261081D94202F01EF67081D16080E2404061A01D9019C05FFFFFE54
:20672000FF69107E1F0D070F1C70005F240194011D44133E063F0C1E388E1A61032DEB03FC
:206740003C071FC001F1C00F9111411B52700312C4030C09293807CC1C19F807E0D00B4D35
:2067600008180E1FFCE7092C0B3E001CFF801DC3C01F01AC178E1EFD110113032D470A0CF2
:206780000B521E00C01E01801B830010FC1D3D71191F070151062FE00CAA0D21030D13D22B
:2067A0000E4DDA103C051E00200E00121E03B0130D2C5F0C3DC6210F1607E034105D27195C
:2067C0002C08F8E00386E00601A21B4D41130E1818C30F41AE0C0D500E03E00706E003FC9A
:2067E000FC01F8C010033D610B2D01113DB9101D521A6E1871191DCC09EE384F221E205132
:20680000241D9E071E079D080E32FF701A2D8A0A1E303D191DD51A38057800C07896A20069
:20682000031D071DD1120128030E513FE1271D400A5C0A0307FC06039C0E038C641D910335
:206840001DBC162DDB1E1D121E5EFCAB231D50041E0FC41A1C05FFC00C1F76089EF0C11A40
:206860002DCE130C063C0F03C001FE60038E3F60030E101E8115011B030F30FF87D10B6E58
:20688000386B0A0E127C2B230C056B18000FF800123DC50852E0030E10019E11190509364A
:2068A0003E99861D37171DA81B1C051F0F000FA2180E3CF01005230FF0034D1B123E0C0AD6
:2068C0000E3E38B60E1D29168C0DF8001DF8001F9C001F1E001E1C0E8D06120C042CFF87C7
:2068E000F82A21063B388F0553B00D1EE018000D2EF3E3C077E7E07C7C70787870010F4DEE
:20690000FDFD31061D84037EFC60030E638160030D2201115E87A0051D2F224D9A05000447
