:020000040800F2
:1000000000000120A91400081DDF00081FDF000800
:1000100021DF000823DF000825DF000800000000C2
:10002000000000000000000000000000F17E000859
:1000300027DF000800000000817F000829DF00089A
:10004000F1140008F1140008F1140008F11400087C
:10005000F1140008F11400082DDF000833DF000858
:10006000F1140008F1140008F1140008F11400085C
:10007000F1140008F1140008F1140008F11400084C
:1000800039DF0008F1140008F1140008F114000829
:10009000F1140008F1140008F114000845DF00080D
:1000A000F1140008F1140008F1140008F11400081C
:1000B00079DF0008F1140008F1140008F1140008B9
:1000C000F1140008F1140008F1140008F1140008FC
:1000D000F1140008F114000855DF000861DF000882
:1000E0004DDF0008F1140008F114000800000000C2
:1000F0000000000000000000000000000000000000
:100100000000000000000000F1140008F1140008D5
:10011000F1140008F1140008F11400086DDF000864
:10012000F1140008F1140008F1140008F11400089B
:10013000F1140008F1140008F1140008F11400088B
:10014000F1140008F1140008F114000885DF00081C
:10015000000000000000000000000000000000009F
:10016000000000000000000000000000000000008F
:10017000000000000000000000000000000000007F
:10018000000000000000000000000000000000006F
:10019000000000000000000000000000000000005F
:1001A000000000000000000000000000000000004F
:1001B000000000000000000000000000000000003F
:1001C000000000000000000000000000000000002F
:1001D000000000000000000000000000000000001F
:0401E0005FF8E0F1F3
:1001F00010B5054C237833B9044B13B10448AFF361
:1002000000800123237010BD640500200000000061
:10021000A8670108084B10B51BB108490848AFF39F
:1002200000800848036803B910BD074B002BFBD0C2
:10023000BDE81040184700BF00000000680500201E
:10024000A8670108640500200000000081F000415B
:1002500002E000BF83F0004330B54FEA41044FEAAB
:10026000430594EA050F08BF90EA020F1FBF54EA46
:10027000000C55EA020C7FEA645C7FEA655C00F0E2
:10028000E2804FEA5454D4EB5555B8BF6D420CDDB3
:100290002C4480EA020281EA030382EA000083EA36
:1002A000010180EA020281EA0303362D88BF30BDD6
:1002B00011F0004F4FEA01314FF4801C4CEA11312C
:1002C00002D0404261EB410113F0004F4FEA03338B
:1002D0004CEA133302D0524263EB430394EA050F16
:1002E00000F0A780A4F10104D5F1200E0DDB02FA85
:1002F0000EFC22FA05F2801841F1000103FA0EF219
:10030000801843FA05F359410EE0A5F120050EF1DE
:10031000200E012A03FA0EFC28BF4CF0020C43FA0F
:1003200005F3C01851EBE37101F0004507D54FF01C
:10033000000EDCF1000C7EEB00006EEB0101B1F56C
:10034000801F1BD3B1F5001F0CD349085FEA3000B2
:100350004FEA3C0C04F101044FEA445212F5800FBD
:1003600080F09A80BCF1004F08BF5FEA500C50F15A
:10037000000041EB045141EA050130BD5FEA4C0C3D
:10038000404141EB010111F4801FA4F10104E9D1C6
:1003900091F0000F04BF01460020B1FA81F308BFBD
:1003A0002033A3F10B03B3F120020CDA0C3208DD89
:1003B00002F1140CC2F10C0201FA0CF021FA02F164
:1003C0000CE002F11402D8BFC2F1200C01FA02F1D4
:1003D00020FA0CFCDCBF41EA0C019040E41AA2BFF9
:1003E00001EB0451294330BD6FEA04041F3C1CDAC1
:1003F0000C340EDC04F11404C4F1200220FA04F0E1
:1004000001FA02F340EA030021FA04F345EA03018A
:1004100030BDC4F10C04C4F1200220FA02F001FA4C
:1004200004F340EA0300294630BD21FA04F02946CE
:1004300030BD94F0000F83F4801306BF81F4801167
:100440000134013D4EE77FEA645C18BF7FEA655CDA
:1004500029D094EA050F08BF90EA020F05D054EAAC
:10046000000C04BF1946104630BD91EA030F1EBFB1
:100470000021002030BD5FEA545C05D140004941B5
:1004800028BF41F0004130BD14F580043CBF01F5A8
:10049000801130BD01F0004545F0FE4141F470018E
:1004A0004FF0000030BD7FEA645C1ABF1946104669
:1004B0007FEA655C1CBF0B46024650EA013406BF6A
:1004C00052EA033591EA030F41F4002130BD00BF29
:1004D00090F0000F04BF0021704730B54FF48064E6
:1004E00004F132044FF000054FF0000150E700BF67
:1004F00090F0000F04BF0021704730B54FF48064C6
:1005000004F1320410F0004548BF40424FF00001B2
:100510003EE700BF42004FEAE2014FEA31014FEAF5
:1005200002701FBF12F07F4393F07F4F81F0605144
:10053000704792F0000F14BF93F07F4F704730B5B3
:100540004FF4607401F0004521F0004120E700BF46
:1005500050EA010208BF704730B54FF000050AE0CD
:1005600050EA010208BF704730B511F0004502D5CE
:10057000404261EB41014FF4806404F132045FEAD0
:10058000915C3FF4DCAE4FF003025FEADC0C18BF75
:1005900003325FEADC0C18BF033202EBDC02C2F16B
:1005A000200300FA03FC20FA02F001FA03FE40EAFD
:1005B0000E0021FA02F11444C1E600BF70B54FF0FD
:1005C000FF0C4CF4E06C1CEA11541DBF1CEA1355DF
:1005D00094EA0C0F95EA0C0F00F0DEF82C4481EA47
:1005E000030621EA4C5123EA4C5350EA013518BF67
:1005F00052EA033541F4801143F4801338D0A0FB54
:1006000002CE4FF00005E1FB02E506F00042E0FB00
:1006100003E54FF00006E1FB03569CF0000F18BF06
:100620004EF0010EA4F1FF04B6F5007F64F54074AE
:1006300004D25FEA4E0E6D4146EB060642EAC62141
:1006400041EA55514FEAC52040EA5E504FEACE2EAE
:10065000B4F1FD0C88BFBCF5E06F1ED8BEF1004FB1
:1006600008BF5FEA500E50F1000041EB045170BD2D
:1006700006F0004646EA010140EA020081EA030171
:10068000B4EB5C04C2BFD4EB0C0541EA045170BD6D
:1006900041F480114FF0000E013C00F3AB8014F1E7
:1006A000360FDEBF002001F0004170BDC4F1000430
:1006B000203C35DA0C341BDC04F11404C4F12005B1
:1006C00000FA05F320FA04F001FA05F240EA02000C
:1006D00001F0004221F0004110EBD37021FA04F642
:1006E00042EB06015EEA430E08BF20EAD37070BDFC
:1006F000C4F10C04C4F1200500FA04F320FA05F05B
:1007000001FA04F240EA020001F0004110EBD3705C
:1007100041F100015EEA430E08BF20EAD37070BDCC
:10072000C4F1200500FA05F24EEA020E20FA04F3A5
:1007300001FA05F243EA020321FA04F001F0004154
:1007400021FA04F220EA020000EBD3705EEA430EC5
:1007500008BF20EAD37070BD94F0000F0FD101F0F4
:100760000046400041EB010111F4801F08BF013C2D
:10077000F7D041EA060195F0000F18BF704703F06B
:100780000046520043EB030313F4801F08BF013DF2
:10079000F7D043EA0603704794EA0C0F0CEA1355AE
:1007A00018BF95EA0C0F0CD050EA410618BF52EA68
:1007B0004306D1D181EA030101F000414FF000006E
:1007C00070BD50EA410606BF1046194652EA43067C
:1007D00019D094EA0C0F02D150EA013613D195EAF0
:1007E0000C0F05D152EA03361CBF104619460AD138
:1007F00081EA030101F0004141F0FE4141F4700142
:100800004FF0000070BD41F0FE4141F4780170BD31
:1008100070B54FF0FF0C4CF4E06C1CEA11541DBF96
:100820001CEA135594EA0C0F95EA0C0F00F0A7F898
:10083000A4EB050481EA030E52EA03354FEA0131C5
:1008400000F088804FEA03334FF0805545EA1313D8
:1008500043EA12634FEA022245EA111545EA1065A0
:100860004FEA00260EF000419D4208BF964244F137
:10087000FD0404F5407402D25B084FEA3202B61A56
:1008800065EB03055B084FEA32024FF480104FF42A
:10089000002CB6EB020E75EB030E22BFB61A75469E
:1008A00040EA0C005B084FEA3202B6EB020E75EB31
:1008B000030E22BFB61A754640EA5C005B084FEA99
:1008C0003202B6EB020E75EB030E22BFB61A754666
:1008D00040EA9C005B084FEA3202B6EB020E75EB71
:1008E000030E22BFB61A754640EADC0055EA060E32
:1008F00018D04FEA051545EA16754FEA06164FEA75
:10090000C30343EA52734FEAC2025FEA1C1CC0D120
:1009100011F4801F0BD141EA00014FF000004FF0AD
:10092000004CB6E711F4801F04BF01430020B4F16E
:10093000FD0C88BFBCF5E06F3FF6AFAEB5EB030C26
:1009400004BFB6EB020C5FEA500C50F1000041EB23
:10095000045170BD0EF0004E4EEA113114EB5C04F0
:10096000C2BFD4EB0C0541EA045170BD41F48011C3
:100970004FF0000E013C90E645EA060E8DE60CEACB
:10098000135594EA0C0F08BF95EA0C0F3FF43BAFE8
:1009900094EA0C0F0AD150EA01347FF434AF95EA9F
:1009A0000C0F7FF425AF104619462CE795EA0C0F83
:1009B00006D152EA03353FF4FDAE1046194622E750
:1009C00050EA410618BF52EA43067FF4C5AE50EA2A
:1009D00041047FF40DAF52EA43057FF4EBAE12E71A
:1009E0004FEA410212F5001215D211D56FF4787357
:1009F000B3EB625212D94FEAC12343F0004343EAFA
:100A0000505311F0004F23FA02F018BF40427047D4
:100A10004FF00000704750EA013005D111F000405E
:100A200008BF6FF0004070474FF00000704700BFF4
:100A30004A0011D212F5001211D20DD56FF478735D
:100A4000B3EB62520ED44FEAC12343F0004343EAB2
:100A5000505323FA02F070474FF00000704750EAFD
:100A6000013002D14FF0FF3070474FF00000704767
:100A70004FEA4102B2F1E04324BFB3F5001CDCF1C0
:100A8000FE5C0DD901F0004C4FEAC0024CEA5070F8
:100A9000B2F1004F40EB830008BF20F00100704727
:100AA00011F0804F21D113F13872BCBF01F000402A
:100AB000704741F480114FEA5252C2F11802C2F15C
:100AC000200C10FA0CF320FA02F018BF40F00100DD
:100AD0004FEAC1234FEAD32303FA0CFC40EA0C008F
:100AE00023FA02F34FEA4303CCE77FEA625307D1CC
:100AF00050EA01331EBF4FF0FE4040F44000704703
:100B000001F0004040F0FE4040F40000704700BF9C
:100B100080F0004002E000BF81F0004142001FBFB2
:100B20005FEA410392EA030F7FEA226C7FEA236CBB
:100B30006AD04FEA1262D2EB1363C1BFD2184140B0
:100B400048404140B8BF5B42192B88BF704710F046
:100B5000004F40F4000020F07F4018BF404211F0E9
:100B6000004F41F4000121F07F4118BF494292EA51
:100B7000030F3FD0A2F1010241FA03FC10EB0C007D
:100B8000C3F1200301FA03F100F0004302D549420A
:100B900060EB4000B0F5000F13D3B0F1807F06D3B7
:100BA00040084FEA310102F10102FE2A51D2B1F1AF
:100BB000004F40EBC25008BF20F0010040EA0300A4
:100BC0007047490040EB000010F4000FA2F1010251
:100BD000EDD1B0FA80FCACF1080CB2EB0C0200FADB
:100BE0000CF0AABF00EBC25052421843BCBFD04029
:100BF0001843704792F0000F81F4000106BF80F4A3
:100C000000000132013BB5E74FEA41037FEA226C65
:100C100018BF7FEA236C21D092EA030F04D092F030
:100C2000000F08BF0846704790EA010F1CBF002064
:100C3000704712F07F4F04D1400028BF40F00040C1
:100C4000704712F100723CBF00F50000704700F0E1
:100C5000004343F0FE4040F4000070477FEA226208
:100C600016BF08467FEA23630146420206BF5FEAD9
:100C7000412390EA010F40F4800070474FF00003D9
:100C800004E000BF10F0004348BF40425FEA000CA0
:100C900008BF704743F0964301464FF000001CE048
:100CA00050EA010208BF70474FF000030AE000BF9E
:100CB00050EA010208BF704711F0004302D54042DC
:100CC00061EB41015FEA010C02BF8446014600204E
:100CD00043F0B64308BFA3F18053A3F50003BCFA69
:100CE0008CF2083AA3EBC25310DB01FA02FC634416
:100CF00000FA02FCC2F12002BCF1004F20FA02F21D
:100D000043EB020008BF20F00100704702F120020F
:100D100001FA02FCC2F1200250EA4C0021FA02F270
:100D200043EB020008BF20EADC7070474FF0FF0C75
:100D30001CEAD0521EBF1CEAD15392EA0C0F93EA70
:100D40000C0F6FD01A4480EA010C400218BF5FEA12
:100D500041211ED04FF0006343EA501043EA511185
:100D6000A0FB01310CF00040B1F5000F3EBF49007F
:100D700041EAD3715B0040EA010062F17F02FD2A83
:100D80001DD8B3F1004F40EBC25008BF20F0010066
:100D9000704790F0000F0CF0004C08BF49024CEA7D
:100DA000502040EA51207F3AC2BFD2F1FF0340EA0F
:100DB000C250704740F400004FF00003013A5DDC80
:100DC00012F1190FDCBF00F000407047C2F10002C1
:100DD000410021FA02F1C2F1200200FA02FC5FEAAE
:100DE000310040F1000053EA4C0308BF20EADC70F8
:100DF000704792F0000F00F0004C02BF400010F46A
:100E0000000F013AF9D040EA0C0093F0000F01F016
:100E1000004C02BF490011F4000F013BF9D041EA38
:100E20000C018FE70CEAD15392EA0C0F18BF93EA3A
:100E30000C0F0AD030F0004C18BF31F0004CD8D164
:100E400080EA010000F00040704790F0000F17BFEB
:100E500090F0004F084691F0000F91F0004F14D031
:100E600092EA0C0F01D142020FD193EA0C0F03D189
:100E70004B0218BF084608D180EA010000F000408C
:100E800040F0FE4040F40000704740F0FE4040F467
:100E9000400070474FF0FF0C1CEAD0521EBF1CEA06
:100EA000D15392EA0C0F93EA0C0F69D0A2EB030224
:100EB00080EA010C49024FEA402037D04FF08053BE
:100EC00043EA111143EA10130CF000408B4238BF83
:100ED0005B0042F17D024FF4000C8B4224BF5B1A91
:100EE00040EA0C00B3EB510F24BFA3EB510340EADF
:100EF0005C00B3EB910F24BFA3EB910340EA9C008D
:100F0000B3EBD10F24BFA3EBD10340EADC001B01FC
:100F100018BF5FEA1C1CE0D1FD2A3FF650AF8B42A0
:100F200040EBC25008BF20F0010070470CF0004CAD
:100F30004CEA50207F32C2BFD2F1FF0340EAC250D8
:100F4000704740F400004FF00003013A37E792F099
:100F5000000F00F0004C02BF400010F4000F013AF7
:100F6000F9D040EA0C0093F0000F01F0004C02BFF2
:100F7000490011F4000F013BF9D041EA0C0195E75B
:100F80000CEAD15392EA0C0F08D142027FF47DAFF4
:100F900093EA0C0F7FF470AF084676E793EA0C0FE4
:100FA00004D14B023FF44CAF08466EE730F0004CE2
:100FB00018BF31F0004CCAD130F000427FF45CAF72
:100FC00031F000437FF43CAF5FE700BF4FF0FF3CE0
:100FD00006E000BF4FF0010C02E000BF4FF0010C33
:100FE0004DF804CD4FEA40024FEA41037FEA226CFC
:100FF00018BF7FEA236C11D001B052EA530C18BF1E
:1010000090EA010F58BFB2EB030088BFC81738BF82
:101010006FEAE17018BF40F0010070477FEA226C70
:1010200002D15FEA402C05D17FEA236CE4D15FEA6C
:10103000412CE1D05DF8040B704700BF84460846A0
:101040006146FFE70FB5FFF7C9FF002848BF10F161
:10105000000F0FBD4DF808EDFFF7F4FF0CBF0120A6
:1010600000205DF808FB00BF4DF808EDFFF7EAFF30
:1010700034BF012000205DF808FB00BF4DF808EDEB
:10108000FFF7E0FF94BF012000205DF808FB00BFE0
:101090004DF808EDFFF7D2FF94BF012000205DF866
:1010A00008FB00BF4DF808EDFFF7C8FF34BF012073
:1010B00000205DF808FB00BF4FEA40024FEA410301
:1010C0007FEA226C02D15FEA402C08D17FEA236CD0
:1010D00002D15FEA412C02D14FF0000070474FF07F
:1010E000010070474FEA4002B2F1FE4F0FD34FF0BC
:1010F0009E03B3EB12620DD94FEA002343F0004385
:1011000010F0004F23FA02F018BF404270474FF032
:101110000000704712F1610F01D1420205D110F0B9
:10112000004008BF6FF0004070474FF0000070476C
:1011300042000ED2B2F1FE4F0BD34FF09E03B3EB41
:10114000126209D44FEA002343F0004323FA02F06D
:1011500070474FF00000704712F1610F01D1420259
:1011600002D14FF0FF3070474FF00000704700BFD2
:1011700010F8012B11F8013B012A28BF9A42F7D041
:10118000D01A7047034613F8012B002AFBD1181A16
:10119000013870474FF0FF3C06E000BF4FF0010CF4
:1011A00002E000BF4FF0010C4DF804CD4FEA410CB6
:1011B0007FEA6C5C4FEA430C18BF7FEA6C5C1BD083
:1011C00001B050EA410C0CBF52EA430C91EA030F04
:1011D00002BF90EA020F0020704710F1000F91EA61
:1011E000030F58BF994208BF90422CBFD8176FEA2F
:1011F000E37040F0010070474FEA410C7FEA6C5CFD
:1012000002D150EA013C07D14FEA430C7FEA6C5C03
:10121000D6D152EA033CD3D05DF8040B704700BF2F
:101220008446104662468C461946634600E000BF7D
:1012300001B5FFF7B7FF002848BF10F1000F01BD4F
:101240004DF808EDFFF7F4FF0CBF012000205DF81A
:1012500008FB00BF4DF808EDFFF7EAFF34BF01209F
:1012600000205DF808FB00BF4DF808EDFFF7E0FF38
:1012700094BF012000205DF808FB00BF4DF808ED89
:10128000FFF7CEFF94BF012000205DF808FB00BFF0
:101290004DF808EDFFF7C4FF34BF012000205DF8D2
:1012A00008FB00BF4FEA410C7FEA6C5C02D150EAB8
:1012B000013C0AD14FEA430C7FEA6C5C02D152EA4E
:1012C000033C02D14FF0000070474FF0010070471F
:1012D00070B50F4E0F4D761BB61018BF002405D009
:1012E000013455F8043B9847A642F9D10A4E0B4DFC
:1012F00015F05AFA761BB61018BF002406D0013438
:1013000055F8043B9847A642F9D170BD70BD00BFA7
:10131000F4C30108F4C301080CC40108F4C30108B4
:1013200070B4840746D0541E002A41D0CDB2034683
:1013300002E0621EE4B3144603F8015B9A07F8D199
:10134000032C2ED9CDB245EA05250F2C45EA0545DB
:1013500019D9264603F11002103E0F2E42F8105CF8
:1013600042F80C5C42F8085C42F8045C02F110029E
:10137000F2D8A4F1100222F00F0204F00F04103290
:10138000032C13440DD91E462246043A032A46F87C
:10139000045BFAD8221F22F003020432134404F043
:1013A00003042CB1C9B21C4403F8011BA342FBD1B6
:1013B00070BC704714460346C2E700BF024B13B12E
:1013C000024800F005B8704700000000DD13000877
:1013D000002301461A46184600F014B838B5074DE8
:1013E000074C2C1BA41005D0013C55F8043D984730
:1013F000002CF9D1BDE8384015F0DCB910C4010863
:101400000CC401082DE9F047254C0646256888469E
:10141000D5F8484192469946C4B360681F2817DC46
:10142000411C76B104EB8003C3F888A0D4F888513E
:10143000012282401543022EC4F88851C3F8089156
:101440001ED0831C6160002044F82380BDE8F08733
:10145000144B03B34FF4C87014F034FB0446D0B1FE
:10146000D5F84831002784E888003846C5F8484157
:101470000121C4F88871C4F88C71002EE1D0D1E745
:10148000D4F88C311A43C4F88C21DAE705F5A67438
:10149000C5F84841C1E74FF0FF30BDE8F08700BF15
:1014A00024680108C55A0108002103E00B4B5B5872
:1014B000435004310A480B4B42189A42F6D30A4A69
:1014C00002E0002342F8043B084B9A42F9D300F0B3
:1014D00011F8FFF7FDFE09F0A9FE704710C40108DE
:1014E000000000206405002064050020B4F3002003
:1014F000FEE70000124B1A6842F0010018605968BC
:10150000104A0A405A60186820F0847121F4803231
:101510001A60186820F4802119605A6822F4FE00CD
:10152000586019684FF47F0021F0A05200211A6022
:101530009860D962044B4FF000629A60704700BF18
:10154000001002400000FFF000ED00E008B5074A7F
:10155000136843F010001060032000F025F800200D
:101560000CF09CFC0CF026FB002008BD0020024083
:10157000024A136801331360704700BF80050020E2
:10158000014B1868704700BF8005002013B501901B
:10159000FFF7F6FF0446FFF7F3FF019B001B98429D
:1015A000F9D302B010BD0000074A0002D36823F44B
:1015B000E0610B04190C41F0BF6C4CF4003300F4F3
:1015C000E0610B43D360704700ED00E030B5174B8E
:1015D0004FF0010CDC68C4F30223C3F10704042CB0
:1015E00028BF04241D1D0CFA04F4062D04F1FF3558
:1015F0008CBF033B0023294099400CFA03F35C1E87
:101600002240002842EA01024FEA0212AFBF00F175
:101610006040074C00F00F00D2B2A5BFD2B200F577
:101620006140225480F8002330BD00BF00ED00E08F
:1016300014ED00E04209012300F01F0003FA00F15D
:10164000014840F82210704700E100E00138B0F195
:10165000807F0AD2064B074AF021586082F8231097
:10166000002007219860196070470120704700BF73
:1016700010E000E000ED00E0044B04281A680CBF05
:1016800042F0040222F004021A60704710E000E009
:1016900010B518B390F821300BB980F820300468E9
:1016A000022180F821102268416822F47F5C826860
:1016B0002CF030031143C26811430269114342699F
:1016C000114382691143C2690A4313432360002412
:1016D0000123446380F82130204610BD012010BD55
:1016E00030B590F820404FF0020C012C2CD0012591
:1016F00080F82050056880F821C02C6824F001048F
:101700002C6005686B6043680468102B0BBFA260F7
:10171000A160046804680CBFE160E26002681168BF
:1017200041F0020515600468236843F0040222605A
:1017300001680D6845F008040C600068036843F018
:1017400001020260002030BD604630BD70B5A44D7E
:1017500003680446AB421FD9A24E31680836B34233
:101760000DD01436B3420DD01436B3420DD014361A
:10177000B3420CBF4FF4004C4FF4002C07E04FF085
:10178000080C04E04FF0800C01E04FF4006C1CEA00
:10179000010F00F08C802BE0934A116808329342CD
:1017A00015D01432934214D01432934213D0143211
:1017B000934213D01432934213D01432934213D075
:1017C000AB420CBF4FF000604FF400200EE0082049
:1017D0000CE080200AE04FF4006007E04FF4004086
:1017E00004E04FF4002001E04FF4000008427AD0FA
:1017F0001A68120758D5186820F008061E6023687A
:10180000AB4218D9794EB3420DD01436B3420CD046
:101810001436B3420BD01436B34214BF4FF4002039
:101820004FF4004005E0082003E0802001E04FF481
:1018300000606C4A29E06E498B4216D014318B420D
:1018400015D014318B4214D014318B4214D0143182
:101850008B4214D014318B4214D014318B4214BFFC
:101860004FF400204FF000600EE008200CE08020D4
:101870000AE04FF4006007E04FF4004004E04FF44A
:10188000002001E04FF40000574A5060636B266B64
:1018900043F0010104200022616384F8210084F8F0
:1018A00020200EB12046B0472368AB421BD94D4AD9
:1018B0001068083293420DD0143293420CD0143287
:1018C00093420BD01432934214BF4FF480214FF453
:1018D000804105E0042103E0402101E04FF48061F4
:1018E00001422FD138E1404801680830834215D0C9
:1018F0001430834215D01430834215D01430834203
:1019000015D01430834215D01430834215D0AB4229
:1019100014BF4FF4802C4FF0806C10E04FF0040C9B
:101920000DE04FF0400C0AE04FF4806C07E04FF4FC
:10193000804C04E04FF4802C01E04FF4800C1CEA52
:10194000010F79D01E68760760D51A6890065EBFD1
:101950001A6822F004021A602368AB4218D9234A9D
:1019600093420DD0143293420CD0143293420BD0D8
:101970001432934214BF4FF480214FF4804105E0AC
:10198000042103E0402101E04FF48061154E34E072
:101990001748834216D01430834215D01430834246
:1019A00014D01430834214D01430834214D0143035
:1019B00083421FD01430834214BF4FF480214FF074
:1019C000806119E0042117E0402115E04FF48061A7
:1019D00012E04FF480410FE04FF480210CE000BF93
:1019E000800002400004024000000240080402405F
:1019F000080002404FF48001594E7160E36A4FF0D5
:101A0000110C84F821C00BB1204698472668AE42DD
:101A100013D9544B196808339E4229D014339E427F
:101A200028D014339E4227D014339E4214BF4FF463
:101A300000324FF400522AE0266849480168083015
:101A4000864215D01430864214D01430864213D00A
:101A50001430864213D01430864213D0143086429C
:101A600013D0AE4214BF4FF400324FF000720EE0BC
:101A700002220CE020220AE04FF4007207E04FF44B
:101A8000005204E04FF4003201E04FF400120A4229
:101A900014BF01220022002A60D0306881075DD582
:101AA00031688A065EBF326822F002023260266820
:101AB000AE4218D92C498E420DD014318E420CD032
:101AC00014318E420BD014318E4214BF4FF40033C8
:101AD0004FF4005305E0022303E0202301E04FF41C
:101AE0000073204829E0214DAE4216D01435AE4295
:101AF00015D01435AE4214D01435AE4214D014357E
:101B0000AE4214D01435AE4214D01435AE4214BFD8
:101B10004FF400334FF000730EE002230CE020235B
:101B20000AE04FF4007307E04FF4005304E04FF471
:101B3000003301E04FF4001309484360626BA36A6D
:101B400001260025626384F8216084F820502BB1BF
:101B50002046BDE87040184726685AE770BD00BFB0
:101B60000000024000040240080402400800024055
:101B700000232DE9F74F1D46604ADFF88CC1DFF8DE
:101B80008CE101240F68AC4034EA070640F0AF80D6
:101B90004F68122F28D00ED8022F22D004D837B386
:101BA000012F2DD1CB682BE0032F18D0112F27D177
:101BB000CB68043324E0524EB74218D006D8DFF881
:101BC0005081474513D008F5803A05E067450ED0AF
:101BD00077450CD0DFF83CA1574511D107E0002331
:101BE0000EE0CB6808330BE0CB680C3308E08B6861
:101BF0002BB1012B0CBF04614461082300E00423D6
:101C0000FF2C97BF8346A5F10807D0F80090AF00DE
:101C100084BFD0F80490BF004FF00F0808FA07F611
:101C200029EA060903FA07F749EA070688BF00F11F
:101C3000040BCBF800604F68FE0058D5314E25F0FC
:101C40000309B76909F1804A47F00107B761B7692D
:101C500005F0030907F001070197019F0AF5803796
:101C6000D7F808A04FEA8909A6F5843608FA09F8DA
:101C7000B0422AEA08080ED006F5806A50450CD01A
:101C80000AF58066B0420AD006F5806A50450CBF5E
:101C90000326042604E0002602E0012600E00226D6
:101CA00006FA09F646EA0809C7F808904F68166868
:101CB00017F4803F14BF2643A64316604F6856684A
:101CC00017F4003F14BF2643A64356604F6896683A
:101CD00017F4801F14BF2643A64396604F68D6684A
:101CE00017F4001F14BF344326EA0404D4600135FE
:101CF000102D7FF446AF03B0BDE8F08F0004014023
:101D000000002110001002400000311000003210CD
:101D100000001110000022108368194214BF012036
:101D20000020704702B909040161704708B5044BEF
:101D30005969014202D0586109F03CFC08BD00BF5E
:101D4000000401402DE9F043044690F87C0285B080
:101D500001289DF830E09DF834C0BDF8388026D0C9
:101D6000282001FB0009012584F87C5200FB014575
:101D700002F07F07D609A14485F82430A9F8048031
:101D800085F8251085F82BC085F8267085F8276022
:101D900085F828E02068CDF80880CDF804C0CDF89B
:101DA00000E002F050FF002384F87C3200E00220C3
:101DB00005B0BDE8F08310B590F87C320446012BE5
:101DC00009D0012084F87C02206803F0B5F80020D7
:101DD00084F87C0210BD022010BD2DE9F0410546BB
:101DE00086B088B390F87D3203F0FF021BB980F80B
:101DF0007C220CF0F9F82C466E46032085F87D0213
:101E000054F8100B02F0EDFD0FCC0FC621686F46A1
:101E100031602E4605F1040898E80E00286802F0AB
:101E2000C6FD56F8100B012102F0E1FD0FCE0FC7E1
:101E300023683B6098E80E00286802F03BFE012210
:101E400085F87D22002000E0012006B0BDE8F08189
:101E50002DE9F0414FF0280C0CFB010E9DF8188085
:101E6000079EBDF820509DF824708EF827208EF82C
:101E70002B304C1CB8F1000F0CD10CFB040C4FF0B4
:101E8000030E022B8CF806E024D073453BD0012BC7
:101E900052D14CE04FF0020C8EF82EC0032B4BD8E1
:101EA000DFE803F002451831B8F1010F44D1002AF0
:101EB00042D125B9282303FB010282F83D804FF06F
:101EC000280C0CFB010898F83D2002B102228EF884
:101ED0002E200FE04FF0280802BB08FB010E9EF8F1
:101EE0003DC008FB0403BCF1000F00D002229A7130
:101EF0004FF0280C0CFB010898F84820022A1BD050
:101F000088F8297018E04FF028083AB908FB010C4E
:101F10009CF83D7008FB04033FB90CE008FB01028C
:101F200092F83C2008FB04032AB1022203E0282790
:101F300007FB040300229A71282707FB04044F4380
:101F4000A660C61986F8251031467563002586F807
:101F50004850B56386F8495024310068BDE8F04127
:101F600002F0E6BE2DE9F04F066887B00446304621
:101F700002F09BFD012840F0F782206802F091FDFD
:101F8000002800F0F182206802F08BFD870242BF3A
:101F900023684FF400125A61206802F082FDC502E6
:101FA00042BF20684FF480114161206802F079FD42
:101FB000400142BF25684FF080676F61206802F0E2
:101FC00070FD810742BF236802225A61206802F037
:101FD00068FD820010D5D6F840044FF0005720F07D
:101FE0002E01C6F8401420460CF023F80121206889
:101FF00002F0C0FD25686F61206802F052FDC30148
:102000004CD50023256804930593D5F84024049209
:10201000D5F840040590059921F02E070597049BFB
:102020009F070DD5049AD00706D5A86920F0005166
:10203000A96120460BF0F9FF059F47F002030593C5
:10204000049A110720D5059840F008010591049FD6
:102050007A070ED5049B206803F4C022B2F5802FC6
:102060000CBF0221012102F085FD20460BF0DDFFAF
:102070000AE0D5F8403423F02E02C5F84024206849
:10208000816941F0005787610498810642BF059934
:1020900041F020010591059FC5F84074206802F0C9
:1020A00000FD070705D520460BF0BBFF2568082378
:1020B0006B61206802F0F5FC850140F11182206817
:1020C00002F02CFF06F5A06801904FF0000B4FF0D6
:1020D000010A28274FF00209A668B34580F0FC8169
:1020E000019A0AFA0BF1114200F0F181D8F80030A0
:1020F000266813F4004F5FFA8BF506F5A06300F035
:10210000E5806A019E18B168480706D50421B160D0
:10211000F06840F00201F16037E0B068810602D556
:102120002020B06031E0B168080715D507FB054EE7
:10213000F168039241F00200052202930821102366
:10214000F0608EF84920B360B1602068294602F043
:10215000F3FE029B039A18E0B068410515D502937F
:10216000F368039243F00202F2602946206802F00D
:10217000E3FE07FB054C4FF4806310210820B1609B
:10218000039A8CF84900B360029BB06810F40071A8
:1021900040F0DE80B068C0072DD507FB054C8CF8F9
:1021A00049A0CCF84410C6F808A09CF82B0010F009
:1021B000FD0F0AD1F268294642F00203F36020685D
:1021C00002F0BAFE1020B0600CE003280AD1995842
:1021D000204641F000569E5029468CF848A0012226
:1021E0000BF02BFF07FB054595F83C1081F001062D
:1021F00085F83C606BE1B16889072DD5F16807FB74
:10220000054C21F00200F0609CF84910012901D032
:10221000052902D18CF848104FE1062902D008297F
:1022200040F04B8107FB054CDCF84400032800F12B
:10223000010E88BF0020CCF844E083BFCCF84400F6
:1022400004208CF848008CF84890995821F0804080
:1022500040F00041995030E1B068000614D5F268B2
:1022600007FB054E42F00203F360DEF8441006203F
:102270000131CEF844108EF849002946206802F05A
:102280005BFE8020B06022E1B168C90640F11F8189
:1022900007FB054C9CF82B00032808D1F26829465F
:1022A00042F00203F360206802F046FE08E010F0FE
:1022B000FD0F01BF985820F0804040F0004098503A
:1022C00007FB0545032185F8491086E069015E1882
:1022D000B068420706D50421B160F06840F0020200
:1022E000F260F4E0B26812F0200218D007FB054358
:1022F0002022B26093F82910012940F0E8800420E0
:1023000083F84900F268029342F00203F360294621
:10231000206802F011FE029D85F84890D7E0B06871
:10232000400611D507FB054E4FF0040C8EF849C04E
:10233000CEF84420F16841F00200F06029462068A0
:1023400002F0FAFD40209DE7B26812F400720AD054
:10235000F268294642F00203F360206802F0ECFDC7
:102360004FF400708EE7B068C00711D507FB054039
:102370004264F268029042F00203F360294620684A
:1023800002F0DAFDC6F808A0029E86F849A09EE099
:10239000B26810070DD50822B260F36843F002015D
:1023A000F1602068294602F0C7FD07FB05450526B8
:1023B0003AE0B068C20612D507FB0540002242642D
:1023C000F368029043F00201F1602068294602F0B0
:1023D000B3FD0298032580F84950102052E7B268F7
:1023E00010060DD5F268294642F00203F36020681A
:1023F00002F0A2FD07FB054C06218CF8491040E7CE
:10240000B06810F4806E12D0F268294642F00203E0
:10241000F36007FB0545206802F08EFD10214FF4A4
:102420008060B160B060082685F849604FE0B2680E
:1024300092074CD5F06807FB054C20F00202F260D1
:102440009CF8490001280CD19CF82B308CF84800EE
:10245000022B32D19CF83D1081F001008CF83D0038
:102460002BE0032802D18CF8489026E0042804D100
:102470008CF848908CF829E01FE0052802D18CF8F0
:1024800048001AE0062801D0082816D107FB0542AB
:10249000506C032800F1010E88BF0020C2F844E010
:1024A00083BF5064042082F8480082F848905A584C
:1024B00022F0804040F000425A50C6F8089007FBD6
:1024C0000546294696F8482020460BF0B6FD0BF14C
:1024D000010B08F12008FFE520684FF0007242610F
:1024E000206802F0DEFAC3063ED521688F6927F026
:1024F00010058D6127683B6AC3F34346022E2ED137
:10250000C3F30A18B8F1000F29D003F00F062820F2
:1025100000FB0649D9F8301009B34246384602F0AC
:10252000B0FAD9F83020D9F8381075014244414446
:1025300007F5A067C9F83020C9F83810EB191E69F3
:102540000B48304058B1EA5922F0804141F0004335
:10255000EB5199F83C5085F0010789F83C702468EC
:10256000A66946F01000A06107B0BDE8F08F00BF7B
:102570000000F81F38B590F87C320446012B0DD0CE
:10258000012580F87C52006802F025FA294620686F
:1025900002F029FB002084F87C0238BD022038BDFF
:1025A00010B590F87C320446012B09D0012084F844
:1025B0007C02206802F0BDFD002084F87C0210BD82
:1025C000022010BD006802F0F3BA282303FB0101CA
:1025D00091F848007047282303FB0101886B70477E
:1025E000006802F02BBB006802F01DBB0268536953
:1025F00013F480610ED053694FF0200C23F48061F6
:10260000516100230422826380F8343080F835C0A1
:1026100001207047084670472DE9F0410E461D46DF
:1026200004469046FEF7ACFF330C0746B8F1000FA6
:1026300034D15FFA83F82068B8F1010F0CBF40690C
:102640008069C1438AB2324214BF01220022C2B162
:102650006A1CF0D0CDB1FEF793FFC31B9D42EAD2B6
:1026600013E06B1C10D12068B8F1010F0CBF40695A
:102670008069C1438AB232420CBF01220022002A83
:10268000EFD10020BDE8F0815DB92026002584F857
:10269000356084F834500320BDE8F0815FFA83F898
:1026A000E1E7FEF76DFFC31B9D42DCD2EDE72DE9AC
:1026B000F0410D4604461646FEF762FF0746C5F395
:1026C00007482368B8F1010F0CBF58699869C043E7
:1026D00080B2284214BF0120002048B35A69520535
:1026E00013D51868042240F400751D602668202167
:1026F0007369002023F480677761A26384F8340053
:1027000084F835100120BDE8F081731CD9D04EB992
:1027100020214FF0000C84F8351084F834C00320D9
:10272000BDE8F081FEF72CFFC01B8642C9D2EFE75F
:10273000BDE8F08170B504460D46FEF721FF064660
:1027400023685869030618D42046FFF74FFFB0B935
:102750006A1CF5D05DB9A26B202042F02003002551
:10276000A36384F8345084F83500032070BDFEF76D
:1027700007FF811B8D42E3D2EDE7002070BD0120F1
:1027800070BD0000F7B5154602681F4613680E4677
:1027900043F480711160089B00224FF00111044640
:1027A000FFF73AFF60B9206806F0FE060661089A56
:1027B00017492046FFF77BFF20B1A16B042923D0E6
:1027C000032022E0236820465A6901929969019109
:1027D0000899019BFFF7AEFF48B9012F266810D07A
:1027E0002F0A376108992046FFF7A4FF40B1A56B77
:1027F000042DE5D12068036843F40072026003E011
:102800002668ECB2346100E0012003B0F0BD00BFE7
:1028100002000100F7B5154602681F4613680E4610
:1028200043F48061116002680446136843F48071C8
:102830001160089B00224FF00111FFF7EDFE002808
:1028400030D12068F6B206F0FE0202612749089AEC
:102850002046FFF72CFF18B1A36B042B22D12BE0ED
:102860002368596901919869089901902046019B54
:10287000FFF760FFC0B9012F22681FD1EDB21561CB
:1028800008992046FFF756FF024668B921680B6891
:1028900043F480700860089B4FF001112046FFF759
:1028A000BBFEA8B103201EE0A26B042AFAD1246863
:1028B000256845F400712160012014E02F0A17619A
:1028C00008992046FFF736FF0028EDD12268D5E7AA
:1028D000276846F001063E61089A04492046FFF742
:1028E000E6FE0028B8D103B0F0BD00BF0200010031
:1028F00070B504460D46FEF743FE0646226853694E
:1029000013F0400022D15169C9060CD551694FF02E
:10291000200C21F010035361A06384F8340084F884
:1029200035C0012070BD5DB9A36B202543F02000A8
:102930000026A06384F8346084F83550032070BD0D
:10294000FEF71EFE821B9542D8D2EDE7002070BD37
:1029500038B50446002864D090F8353003F0FF0203
:102960001BB980F834200BF06BF92168242084F81F
:1029700035000D6825F001030B6000F007FE2A4AC0
:102980002168B0FBF2F3294A4B6094E8220095429B
:1029900081BF4FF4967253434FF47A72B3FBF2F354
:1029A000224D01330B6294E80A00AB4208D85D0067
:1029B000B0FBF5F0C0F30B03042B38BF042013E089
:1029C000A26832B903EB430EB0FBFEF343F40040C0
:1029D00005E019256B43B0FBF3FC4CF44040C0F319
:1029E0000B02002A08BF0120C861E169226A206841
:1029F0000A4302602069E36825680343AB606169AC
:102A0000A56922680D43D56020682021036843F042
:102A1000010202600020A06384F8351084F83600BB
:102A200038BD012038BD00BF40420F00A086010024
:102A30002DE9F74F9B4690F835300446202B894608
:102A400092460C9FBDF8346001D0022067E0002F51
:102A500064D0002E62D042F2107301223149FFF798
:102A6000DBFD80460028F0D194F834000128ECD03A
:102A70002268012584F834501168212021F4006374
:102A80000E991360402284F835005B4684F83620A6
:102A90002046C4F83880524600914946FFF772FE3E
:102AA00090B1A76B84F83480042F16D1284636E005
:102AB00025683B78701E2B61226885B251694907F1
:102AC0000DD42E4601375EB10E992046FFF732FE37
:102AD0000028EDD0A06B04281BD003201FE095B97F
:102AE0000E992046FFF726FE0028F3D12768202103
:102AF0003D6845F400723A6084F8351084F834007B
:102B000084F836000BE07B78023E1361B6B20237E0
:102B1000D9E72468236843F400762660012003B0D7
:102B2000BDE8F08F020010002DE9F04F9B4690F8B1
:102B3000353089B0202B044603919246129EBDF891
:102B40004C50149F02D04FF0020AD3E0002E6CD0FC
:102B5000002D6AD042F2107301226849FFF75CFD34
:102B600080460028EFD194F834000128EBD0226889
:102B70004FF0010984F834901168222021F4006399
:102B80001360402284F835005B4684F836200399B0
:102B9000C4F83880524600972046FFF73BFE824635
:102BA00030B1A16B84F8348004293BD1CA46A1E03E
:102BB0002168012D0B6814D123F480630B6072B679
:102BC00020684569059581690591059A026842F476
:102BD0000073036062B639462046FFF789FE38B3BA
:102BE0001DE0022D0FD143F400620A6072B6236823
:102BF000586906909D690695069A196821F48062C5
:102C00001A6062B61AE043F48060086021684A697D
:102C100007928B690793079B032D0DD94AE0A46B9C
:102C2000202C02D14FF0030A64E04FF0010A61E06A
:102C300027683869307055E0022D15D13B460022D7
:102C40002F492046FFF7E8FC0028EBD172B6276831
:102C50003B6843F40070386025682969317062B6BA
:102C60002268176977703DE000223B4624492046E0
:102C7000FFF7D2FC02460028D4D121680B6823F468
:102C80008060086072B625683B462969204631702D
:102C90001B49FFF7C1FC0028C4D127683A6842F4F9
:102CA00000733B6020680569757062B621680F6922
:102CB000B77017E039462046FFF71AFE0028AED15C
:102CC0002068016931702268536958074DBF126945
:102CD000701C05F1FF35B01C44BF023D7270ADB2EF
:102CE000064699E70025202684F8356084F834509C
:102CF00084F83650504609B0BDE8F08F020010004D
:102D0000040001002DE9F74303680446DD0703D4FE
:102D10002768B80770D4F2E0B84D686800F00C017D
:102D2000042907D06A6802F00C06082E16D16F68D5
:102D3000F90313D54FF4003C9CFAACF22D689CFAD1
:102D4000ACF3B3FA83F000F01F0125FA01F2D207C9
:102D5000DED5A668002EDBD10120D5E2A368B3F54D
:102D6000803F09D00BB928680AE0B3F5A02F286886
:102D700006D140F4802129602B6843F4803705E0B8
:102D800020F480322A602E6826F480272F60A06805
:102D9000C8B1FEF7F5FB06464FF4003999FAA9F3DE
:102DA000286899FAA9F1B1FA81F202F01F0E20FA0F
:102DB0000EF85FEAC873ABD4FEF7E2FB871B642F03
:102DC000ECD90320A0E2FEF7DBFB07464FF4003608
:102DD00096FAA6F3296896FAA6F2B2FA82F808F0F3
:102DE0001F0921FA09FC5FEACC7091D5FEF7C8FBF8
:102DF000C31B642BECD9E4E7804D6B6813F00C0F18
:102E000007D0686800F00C01082921D16A68D10355
:102E10001ED4022797FAA7F2296897FAA7F2B2FA06
:102E200082FC0CF01F0821FA08F3DA0702D5666964
:102E3000012E91D12868F82797FAA7F1B1FA81F904
:102E4000A26920F0F80302FA09F633432B6056E03A
:102E5000666901278EB397FAA7F1B1FA81F2930060
:102E600003F1844808F58409C9F80070FEF788FB6F
:102E700006464FF0020999FAA9F36048296899FAC1
:102E8000A9F2B2FA82FC0CF01F0E21FA0EF3DB0756
:102E900005D4FEF775FB801B0228ECD991E7056885
:102EA000F82696FAA6F7B7FA87F8A16925F0F8038D
:102EB00001FA08F21343036021E097FAA7FEBEFA75
:102EC0008EF3980000F1844808F58409C9F8006081
:102ED000FEF756FB0746022696FAA6F3296896FAED
:102EE000A6F2B2FA82FC0CF01F0E21FA0EF3D807FC
:102EF00005D5FEF745FBC01B0228EDD961E7256823
:102F0000290748D5E0693D4D01273D4918B397FA97
:102F1000A7F2B2FA82F041F82070FEF731FB0746C3
:102F2000022696FAA6F396FAA6F3696A96FAA6FE20
:102F3000BEFA8EFC0CF01F0821FA08F95FEAC9728C
:102F400005D4FEF71DFBC01B0228EAD939E7012092
:102F5000FEF71CFB1FE097FAA7F2B2FA82F641F8DF
:102F60002600FEF70DFB0746022696FAA6F396FA10
:102F7000A6F3686A96FAA6FEBEFA8EFC0CF01F084D
:102F800020FA08F95FEAC97305D5FEF7F9FAC31B01
:102F9000022BEAD915E72568680703D4E06A002800
:102FA0007BD1D0E0154DEE6946F08057EF61EB69BB
:102FB000144E03F080520192019B306840F48071FE
:102FC0003160FEF7DDFA07463368D90505D4FEF710
:102FD000D7FAC21B642AF7D9F3E62669012E08D076
:102FE0000EB92F6A10E0052E2F6A0DD147F00402AA
:102FF0002A622E6A46F001030CE000BF0010024076
:10300000800442420070004027F001002862296AD3
:1030100021F004032B622769FFB1FEF7B1FA022603
:103020008046374641F2883996FAA6F396FAA6F01A
:1030300008B1296A00E0696A97FAA7FEBEFA8EFC19
:103040000CF01F0321FA03F2D207A7D4FEF798FA77
:10305000C8EB00034B45E7D9B3E6FEF791FA022629
:103060008046374641F2883996FAA6F396FAA6F2D8
:103070000AB1286A00E0686A97FAA7F1B1FA81FEFE
:103080000EF01F0C20FA0CF3DB0787D5FEF778FA59
:10309000C8EB00024A45E7D993E69D4D6E68F703F9
:1030A00055D4022872D12868C0005AD44FF08062EB
:1030B00092FAA2F0B0FA80F18B0003F1844808F58F
:1030C00084090026C9F80060FEF75AFA07464FF057
:1030D000006898FAA8F38E4A286898FAA8F1B1FA1D
:1030E00081FE0EF01F0C20FA0CF3D90742D4D76AE8
:1030F000606B27F0F0063043D062D16A236B21F475
:1031000070673B43D3624FF0806292FAA2F6B6FA40
:1031100086F0810001F1844808F584090127C9F887
:103120000070FEF72DFA06464FF0006999FAA9F3F0
:103130002A6899FAA9FEBEFA8EFC0CF01F0322FA47
:1031400003F0C3071CD5266A002E49D1A9E06F6899
:1031500007F00C010829A4D1EB6ADE033FF5FCADB2
:103160009FE76B49676BCB6A03F0F006BE427FF4C2
:10317000F3AD9BE7FEF704FAC11B6429A9D920E649
:10318000FEF7FEF9801B6428D0D91AE6EA6A4FF0F0
:10319000806622F48030E86296FAA6F7B7FA87F1E3
:1031A0008B0003F18448002208F58409C9F8002047
:1031B000FEF7E6F907464FF0006696FAA6F3286890
:1031C00096FAA6F1B1FA81FE0EF01F0C20FA0CF36C
:1031D000D807B8D5FEF7D4F9C21B642AEDD9F0E5BB
:1031E0004B4D696801F00C07082F3FF4B5AD022E76
:1031F0004FF0807263D192FAA2F0B0FA80F18F00A2
:1032000007F1844808F584090022C9F80020FEF778
:10321000B7F907464FF0007898FAA8F33C482968B8
:1032200098FAA8FEBEFA8EFC0CF01F0321FA03F2F6
:10323000D10738D4666AB6F5803F09D1C76A61689C
:103240003943C162C36AE66823F00F021643C662BF
:10325000676A6868A46A20F474113C43214369607A
:103260004FF0807898FAA8F9B9FA89F39A0002F138
:10327000844E0EF5840C0126CCF80060FEF780F930
:1032800006464FF0007494FAA4F3286894FAA4F761
:10329000B7FA87F101F01F0820FA08F95FEAC9724E
:1032A00007D5002030E0FEF76BF9C21B022AB3D924
:1032B00087E5FEF765F9831B022BE4D981E592FAD5
:1032C000A2F4B4FA84F3980000F18448002608F5CB
:1032D0008409C9F80060FEF753F906464FF0007400
:1032E00094FAA4F3296894FAA4F7B7FA87F202F0E3
:1032F0001F0E21FA0EFC5FEACC73D2D5FEF740F91F
:10330000831B022BECD95CE503B0BDE8F08300BF62
:1033100000100240F0B53B4B89B01868596801AA0B
:1033200003C2986803F10C06106004AD1C332C46F0
:1033300030687168083603C49E422546F7D1324989
:103340004F6807F00C03042B59D0082B01D02F48ED
:1033500056E04FF4701292FAA2F0B0FA80F607F439
:10336000701408AD24FA06FCAC44FB031CF81C5C8A
:1033700042D5CF6A0F2393FAA3F2B2FA82F007F094
:103380000F06CF6AC64008AC264417F4803F16F8F3
:1033900010CC1F4B1BD0C86AF02292FAA2F64FF451
:1033A0007064B6FA86F7C96A94FAA4F200F0F000E5
:1033B000F840B2FA82F60130B3FBF0F301F4706723
:1033C00027FA06F102315943B1FBFCF001E0B3FBEF
:1033D000FCF068434FF4701494FAA4F2B2FA82F647
:1033E0004FF4501323FA06FC08AFBC441CF81C1C15
:1033F0008D4205D1400803E00648684300E00448D8
:1034000009B0F0BDC06701080010024000127A0048
:1034100040787D0100093D002DE9F041544A044601
:1034200013680E4603F0070088420AD323689D07FD
:1034300014D55048A768416821F0F0052F43476034
:103440000CE0116821F0070535431560176807F097
:1034500007029642EAD00120BDE8F0812368D80730
:1034600006D4434D2F6807F0070296424BD354E031
:103470006268404D012A02D14FF4003304E0022A71
:103480000CBF4FF00073022393FAA3F1286893FA5C
:10349000A3F1B1FA81F707F01F0820FA08FC5FEAF0
:1034A000CC71D8D56B6841F2883823F00300024311
:1034B0006A60FEF765F862680746012A0CD16B68FE
:1034C00003F00C000428CCD0FEF75AF8C01B40458E
:1034D000F5D90320BDE8F081022A0FD1686800F019
:1034E0000C02082ABDD0FEF74BF8C11B4145F5D9A7
:1034F000EFE7FEF745F8C31B4345EAD8696811F0CA
:103500000C0FF6D1ADE7296821F0070333432B6098
:10351000286800F00705AE429DD12668154F16F0C9
:10352000040F05D07A68E36822F4E0610B437B6006
:103530002068030706D57D68246925F4605646EAAD
:10354000C4027A60FFF7E6FE7F68F02191FAA1F3EA
:10355000B3FA83F507F0F004074EEC40325D074FF5
:10356000D040386000200AF099FC0020BDE8F081CE
:103570000020024000100240286801082C040020AE
:10358000014B1868704700BF2C040020084B4FF413
:10359000E062586892FAA2F1B1FA81F200F4E063B5
:1035A000D3400448044AC15C1068C840704700BF5B
:1035B00000100240386801082C040020084B4FF42A
:1035C0006052586892FAA2F1B1FA81F200F46053A5
:1035D000D3400448044AC15C1068C840704700BF2B
:1035E00000100240386801082C0400200F230360FB
:1035F0000B4B5A6802F0030242605A6802F0F00274
:1036000082605A6802F4E062C2605B68DA0802F421
:10361000E06303610348026802F007030B60704730
:1036200000100240002002402DE9F74303680546E0
:1036300013F0010F6E4C63D0E06940F08051E161FE
:10364000E26902F0805601966A4E019B376847F4A2
:1036500080733360FDF794FF07463068C00506D4D9
:10366000FDF78EFFC11B6429F7D90320BCE0216A56
:103670005F4811F4407606D1276A686827F44076DF
:10368000304320623CE06A6802F44077BE42F3D0E7
:10369000016A4FF4803821F4407798FAA8F3B3FA1E
:1036A00083F9554E4FF0010E46F829E098FAA8F23A
:1036B000B2FA82FC0023C90746F82C300762DBD53A
:1036C000FDF75EFF02268046374641F2883996FABA
:1036D000A6F396FAA6F008B1216A00E0616A97FAAB
:1036E000A7F2B2FA82FE0EF01F0C21FA0CF3DA07F1
:1036F000C2D4FDF745FFC8EB00034B45E7D9B4E75B
:1037000029688B0705D56268AB6822F440473B43C4
:1037100063602E68770705D5E06AEA6820F4003117
:103720000A43E2622F683E0705D5E36A286923F45D
:1037300080263043E062E16A88030FD42C4AD76ABE
:1037400079030BD42A6812F010004DD06768ED6938
:1037500027F4800635436560002045E02368244E49
:10376000DB003AD43768AB6917F0806F04D0F66A93
:1037700006F0F000984236D1E16A4FF0805021F017
:10378000F0021343E362E76A6B6927F47046334340
:10379000E36290FAA0F1B1FA81F2970007F1844850
:1037A00008F584090126C9F80060FDF7E9FE07461F
:1037B0004FF0005898FAA8F3206898FAA8FEBEFACD
:1037C0008EFC0CF01F0320FA03F1CA07BAD4FDF7F0
:1037D000D7FEC01B6428EDD947E7F06A6A6900F498
:1037E00070419142AED0012003B0BDE8F08300BF2C
:1037F0000010024000700040000442422DE9F041F8
:1038000004460E4690461D46FDF7BAFE0746B8F13F
:10381000000F3FD12268916836EA01030ED0691C7F
:10382000F9D07DB1FDF7ACFEC31B9D42F2D209E099
:103830006B1C06D1936836EA0303F9D00020BDE87B
:10384000F08115BB25686E6826F0E0076F60206880
:10385000026822F040010160A36AB3F5005F09D15C
:1038600025682E6826F400572F602068026842F40D
:10387000005101604FF0010C4FF0000E84F851C070
:1038800084F850E00320BDE8F081FDF779FEC01B0D
:103890008542D7D32268CDE737B5044690F851006A
:1038A0001D46C0B2012840F09F80002900F09D8095
:1038B000002A00F09A8094F85030012B00F0948098
:1038C0002163A16A002384F85000B1F5005F4FF036
:1038D000120084F85100A2866365E286E364A36463
:1038E000A363A387E38709D12268106820F40053FB
:1038F00013602268116841F400501060A368B3F5AA
:10390000004F01BF2268136843F4804313602168AD
:103910000A6850065EBF086840F040000860E26830
:103920006368CAB963B1E38E012B09D0E18E69B334
:103930002B46002202212046FFF760FF00283AD1E3
:10394000206B2268411C21630378D360B4F836E011
:103950000EF1FF30E086E9E75BB1E18E012908D086
:10396000E08E98B12B46002202212046FFF746FF49
:1039700008BB226B20681288C260236BB4F836C083
:1039800002330CF1FF312363E186E9E7A36A0221E8
:10399000B3F5005F08BF2268204602BF136843F4F6
:1039A000805313602B460022FFF728FF28B1606D7B
:1039B00040F010016165032017E02B4601228021B1
:1039C0002046FFF71BFF0028F1D1A2682AB925681D
:1039D000E9680191AB680193019B0122002584F8FD
:1039E000512084F8505000E0022003B030BD37B5BC
:1039F00004460020ADF8060094F85100069D012809
:103A000004D094F85100222840F06481002900F08D
:103A10005F81002A00F05C81002B00F0598194F84E
:103A20005000012800F0568194F85100A387012826
:103A3000E387A386E386A36A04BF322084F851009B
:103A40004FF0010C0020B3F5005F84F850C06065B2
:103A5000A2632163A064E06409D12268116821F4A3
:103A6000005010602268136843F400511160206810
:103A7000026851065EBF026842F040020260E368DD
:103A80006168B3F5006F6DD129B1B1F5827F0ED1B8
:103A9000E18E01290BD1226B23681288DA60206B3A
:103AA000B4F836C002300CF1FF312063E186E38EBA
:103AB000002B40D1A16A2B46B1F5005F01BF2268FF
:103AC000116841F48051116000223CE02B46002235
:103AD00002212046FFF792FE002840F0D780216B9C
:103AE00020680A88C260B4F836E0236B0EF1FF301C
:103AF000023381B22363E18641B9A36AB3F5005F63
:103B000001BF2268136843F4805313602B460022E0
:103B100001212046FFF772FE002840F0B78022689E
:103B2000A06BD1680180A36BB4F83EC002330CF1E6
:103B3000FF30A363E087E28E002AC7D16268002AC3
:103B400040F083802B4601212046FFF757FE0028D6
:103B500040F09C802268A36BD0681880A16B023172
:103B6000A1636CE029B1B1F5827F0ED1E08E01280E
:103B70000BD1236B2268591C21631878D060B4F8EC
:103B800036E00EF1FF3CA4F836C0E38E002B45D1A1
:103B9000A36A0121B3F5005F08BF2268204602BF77
:103BA000136843F4805313602B460022FFF726FE70
:103BB00000286BD1A16B3FE02B460022022120465A
:103BC000FFF71CFE002861D1236B2268591C21637A
:103BD0001878D060B4F836E00EF1FF3C1FFA8CF391
:103BE000E38643B9A16AB1F5005F01BF226811689D
:103BF00041F4805111602B46002201212046FFF73D
:103C0000FDFD002842D1A06B2368421CA263D96845
:103C10000170B4F83EE00EF1FF30E087E28E002A3A
:103C2000CAD162688AB92B4601212046FFF7E6FD1A
:103C300060BBA16B481CA0632268D0680870B4F810
:103C40003EE00EF1FF3CA4F83EC0A36AB3F5005F6E
:103C500011D12B46002201212046FFF7CFFD18B1DC
:103C6000616D41F0020510E02268D06881B2ADF8C4
:103C70000610BDF806302B46012280212046FFF7B2
:103C8000BDFD28B1606D40F010056565032022E0A0
:103C9000A36A0125B3F5005F84F8515014D121685F
:103CA0008A68D20610D5636D43F0020262650B6824
:103CB00023F400520A6021680B6843F400520A6042
:103CC00084F85000284606E0002584F8505002E0B1
:103CD000012000E0022003B030BD90F85100704791
:103CE00010B50446002838D090F851300BB909F0CF
:103CF000C9FF2268022084F8510011684FF0010CBE
:103D000021F040031360E06894E80E001A43236931
:103D1000024360691A43E3690243206A1A4302437B
:103D2000A36AA0691A4300F4007313430B60628B0B
:103D3000636A216802F0040003434B602168E26A71
:103D40000A612068064AC36923F40061C16100204A
:103D50006065107084F851C010BD012010BD00BF17
:103D600084050020036A70B523F001020262066A2E
:103D7000426884690D6824F073030D4C1D438B6801
:103D800026F00206A04243EA06030BD1CE6823F0D8
:103D9000080333438C694E6922F44072344323F0A4
:103DA000040322434260856149684163036270BD38
:103DB000002C0140036A30B523F480720262036A6A
:103DC0004268C4690D6824F073042C430E4D23F43B
:103DD000007C8B68A8424CEA03230ED123F4006CCC
:103DE000CB6822F440524CEA032525F480634D69E8
:103DF00042EA051C8A694CEA02124260C4614968C1
:103E0000C163036230BD00BF002C0140036A30B5BE
:103E100023F480520262036A4468C56923F40053A4
:103E200025F4E64C8D680A6843EA0533074D4CEAF1
:103E30000222A84202BF4D6924F4804444EA85145A
:103E40004460C26149680164036230BD002C0140D6
:103E50000268D36843F00101D1600068026842F053
:103E60000103036000207047704770B590F8383048
:103E70000224012B00F0C18080F83940012204683F
:103E800080F83820A56825F47F4626F07703A360E4
:103E90000A68402A00F084801AD8102A00F099801D
:103EA00009D8002A40F0A3800568A96821F07004B1
:103EB00044F007039AE0202A00F09280302A40F074
:103EC00096800568AE6826F0700C4CF037038DE0E4
:103ED000702A3BD01ED8502A49D0602A40F08780F3
:103EE00003684D681A6ACE6822F0100119629C6955
:103EF0001A6A24F4704C22F0A00141EA05154CEA3C
:103F000006369E611D620568AB6823F0700444F0BC
:103F100067036BE0B2F5805F13D0B2F5005F66D146
:103F200004688D68A6684B6826F47F422B43C968F5
:103F3000134343EA0126A6600568AC6844F4804355
:103F400054E00568AB6823F007034FE006688D680E
:103F5000B2684C6822F47F432C43C9681C4344EA8E
:103F60000122B2600568AE6846F077033EE0036860
:103F70004D681A6ACE68196A22F00A0221F001041B
:103F80001C6299692A4321F0F00444EA06169E61F6
:103F90001A620568AB6823F0700141F0570325E011
:103FA00003684D681A6A1C6ACE6824F00101196220
:103FB0009C6922F00A0224F0F00C2A434CEA06160F
:103FC0009E611A620568AB6823F0700141F04703F7
:103FD0000CE00568AC6824F0700646F0170305E0B5
:103FE0000568AA6822F0700141F02703AB60012543
:103FF000002480F8395080F83840204670BD704762
:1040000070477047704710B5036804461A699107F6
:1040100015D5D9688A0712D56FF002021A610168B6
:10402000012303768A69930702D0FFF7E9FF04E0D2
:10403000FFF7E5FF2046FFF7E4FF00202076236826
:104040001969480717D5DA68510714D56FF00400CD
:1040500018612168022323768A69204612F4407F82
:1040600002D0FFF7CDFF04E0FFF7C9FF2046FFF7BE
:10407000C8FF00202076236819690A0716D5DA6878
:10408000100713D56FF00800186121680423237608
:10409000CA692046910702D0FFF7B2FF04E0FFF79C
:1040A000AEFF2046FFF7ADFF002020762368196998
:1040B000CA0617D5DA68D00614D56FF0100018615B
:1040C000216808232376CA69204612F4407F02D073
:1040D000FFF796FF04E0FFF792FF2046FFF791FFFE
:1040E0000020207623681969C90708D5DA68D20745
:1040F00005D56FF001001861204609F00DFF236817
:104100001969080608D5DA68110605D56FF0800030
:104110001861204600F0A3F9236819694A0608D5FA
:10412000DA68500605D56FF0400018612046FFF7A9
:1041300069FF2368196989060AD5DA68920607D5E6
:104140006FF0200018612046BDE8104000F086B9ED
:1041500010BD00001D4A036890420ED0B0F1804FA0
:104160000BD0A2F5943C604507D00CF580629042DC
:1041700003D002F5806C604519D14A6823F07003C2
:104180001343124A90420ED0B0F1804F0BD0A2F5EB
:10419000943C604507D00CF58062904203D002F554
:1041A000806C604503D1CA6823F4407313430360F5
:1041B0008B68C3620A68054B8262984208BF0B692C
:1041C0004FF0010108BF036341617047002C0140BB
:1041D00010B50446A0B190F8393003F0FF021BB9C6
:1041E00080F8382009F02AFE022084F83900211DC9
:1041F0002068FFF7AFFF012184F83910002010BDBF
:10420000012010BD10B50446A0B190F8393003F07C
:10421000FF021BB980F83820FFF726FE022084F841
:104220003900211D2068FFF795FF012184F839101E
:10423000002010BD012010BD036A30B523F010022C
:104240000262036A426884690D6824F4E64C4CEA11
:1042500005248D6823F0200343EA05130B4DA84283
:104260000ED123F0800CCB6822F440624CEA031597
:1042700025F040034D6942EA850C8A694CEA8202C6
:104280004260846149688163036230BD002C014053
:1042900038B590F838300446012B4FF0020023D097
:1042A000012584F8385084F839000C2A17D8DFE843
:1042B00002F0071616160B1616160F161616130012
:1042C0002068FFF74FFD0AE02068FFF7B5FF06E022
:1042D0002068FFF76FFD02E02068FFF797FD0020E0
:1042E00084F8395084F8380038BD10B50123046AC9
:1042F0008B4024EA03040462036A8A4042EA030111
:10430000016210BD10B504460C291CD8DFE801F08D
:10431000071B1B1B0C1B1B1B111B1B1B1600026806
:10432000D36843F002000DE00268D06840F004005A
:1043300008E00268D36843F0080003E00268D3682D
:1043400043F01000D06020680122FFF7CEFF216803
:10435000064A914202BF4A6C42F400424A64246811
:10436000206840F001032360002010BD002C0140B4
:10437000FFF7C8BF10B504460C291CD8DFE801F0D0
:10438000071B1B1B0C1B1B1B111B1B1B1600026896
:10439000D36823F002000DE00268D06820F004002A
:1043A00008E00268D36823F0080003E00268D368DD
:1043B00023F01000D06020680022FFF796FF2068ED
:1043C000104988420DD141F21112036A1A4042B9D4
:1043D00040F24443016A0B401BB9426C22F4004195
:1043E000416441F211132468206A034043B940F24A
:1043F0004442216A0A401AB9206820F00103236070
:10440000002010BD002C0140FFF7B4BF30B590F87C
:1044100038304FF0020C012B1ED00468012280F8C6
:1044200039C080F8382065684FF0000C25F0700323
:10443000636004680B6865682B4363600468A56863
:1044400025F08003A36004684968A5682943A1603A
:1044500080F8392080F838C0604630BD704770471A
:104460002DE9F04781460168C0680B6923F440528A
:1044700010430861D9F80040D9F81070E568D9F800
:104480000860D9F814103E4325F4B0580E4328F0C4
:104490000C033343E360D9F80000D9F8185042699F
:1044A000404E22F4407425434561D9F80070192428
:1044B000B74231D1FFF782F86043D9F804604FF07A
:1044C0006408B300B0FBF3F0B0FBF8F5FFF776F843
:1044D0006043D9F804202E019100B0FBF1FAFFF7F8
:1044E0006DF86043D9F804309D00B0FBF5FCBCFBCF
:1044F000F8F008FB10A211013231B1FBF8F303F020
:10450000F005FFF75BF86043D9F804209100B0FB99
:10451000F1FAFFF753F830E0FFF738F86043D9F8C5
:1045200004104FF064088B00B0FBF3F0B0FBF8F21E
:104530001601FFF72BF86043D9F80450A900B0FB2F
:10454000F1FAFFF723F86043D9F804309A00B0FB82
:10455000F2FCBCFBF8F008FB10A529013231B1FBDD
:10456000F8F303F0F005FFF711F86043D9F80420E1
:104570009100B0FBF1FAFFF709F84443D9F80400C1
:104580008300B4FBF3F4B4FBF8F208FB12A10801BA
:104590003230B0FBF8FE0EF00F09A9444E44BE6065
:1045A000BDE8F08700380140F8B504460E461546D0
:1045B000FCF7E6FF07462268136836EA030324D0B7
:1045C0006B1CF9D0DDB92168CA6822F08003CB608A
:1045D0002568EE6826F02007EF6020680127C16893
:1045E00021F48072C260256800206B6923F0010607
:1045F0006E6184F8380084F839700320F8BDFCF748
:10460000BFFFC01B8542D6D2DDE70020F8BD10B544
:10461000044640B390F8393003F0FF021BB980F82C
:10462000382009F089FB2168022084F83900CB6822
:10463000204623F40052CA60FFF712FF2068016988
:1046400021F4904303612268506920F02A015161EE
:1046500022680121D36843F40050D0600020E06359
:1046600084F8391010BD012010BD70B50D4690F8CA
:1046700039100446C8B201281E4601D022284FD165
:10468000002D4BD0002A49D094F83830012B47D068
:104690000020E06394F839300121222B0CBF322333
:1046A000122384F8381084F83930A284E284E28C32
:1046B0000AB3A368511EB3F5805FE18432464FF020
:1046C000800120460ED1FFF76FFF08B1032070BDB7
:1046D000B5F800C02168CCF308034B60206940B9ED
:1046E0000235E4E7FFF760FF0028EFD120682A7861
:1046F00042600135DBE7324640212046FFF754FF98
:104700000028E3D194F839500026322D0CBF222521
:10471000012584F8395084F8386070BD012070BDDF
:10472000022070BD10B5044690F839001346C2B29D
:10473000012A01D0122A31D100292DD0002B2BD0F3
:1047400094F83800012829D00022E26394F8390057
:10475000626B12280CBF3220222084F839001048E6
:104760004FF0010CA162A38584F838C09062626B9F
:104770000C48D062626B0C48106320680A46011D29
:10478000606BFCF7ADFF216800204B6943F04002ED
:104790004A6184F8380010BD012010BD022010BD10
:1047A000B1470008E5470008F14700087047704727
:1047B00008B50268436A106810F020010DD118682E
:1047C000D985426922F04001416193F839003228CD
:1047D0000CBF1220012083F839001846FFF7E7FFCD
:1047E00008BD704708B5406AFFF7FBFF08BD70477A
:1047F00008B5406A012180F83910C26B0023C385D7
:10480000C38442F01003C363FFF7F1FF08BD13B583
:10481000036804461968DA68C90705D5D00542BFA0
:10482000E06B40F00100E06319685A69880702F004
:10483000010204D51AB1E06B40F00401E16318688D
:10484000410704D51AB1E16B41F00200E063196839
:10485000080704D51AB1E26B42F00800E06319685A
:10486000DA6889064AD5900648D594F8390000F0F0
:10487000EF01222942D1A268A06AB2F5805F2169C6
:104880000DD15B6829B9C3F308020280A06A023027
:1048900003E0D9B20180A06A0130A0620AE019B930
:1048A000421CA262596804E0421CA2625B6803F0E9
:1048B0007F010170B4F82EC00CF1FF3399B2E1858D
:1048C000E1B92068C26822F02003C36094F839106F
:1048D000322902D14FF0120E0BE020684FF0010E8A
:1048E000C26822F48073C3602168486920F0010225
:1048F0004A6184F839E02046FFF759FF23681968B8
:10490000D86809062DD500062BD594F839C00CF0CF
:10491000DF02122A25D1A168206AB1F5805F0BD190
:104920000088C0F308025A602169236A09B902337A
:1049300000E00133236203E0421C226201785960E7
:10494000B4F826C00CF1FF3082B2E2844AB9216883
:10495000CB6823F08000C8602268D16841F0400332
:10496000D36020680168C268490610D552060ED58A
:10497000C36823F04001C16094F8390032280CBFAD
:104980002220012084F839002046FFF70FFFE26B58
:104990005AB1236801221968019158680190019B5E
:1049A000204684F83920FFF722FF02B010BD84B002
:1049B00038B5044605AD85E80E00C36843F04001F4
:1049C000C16000F039FC4FF48030A0630020BDE8E6
:1049D000384004B07047836843F0010181600020D3
:1049E0007047836823F0010181600020704708B59B
:1049F000C368012923F0C042C26004D1C26842F0FA
:104A00000051C16004E019B9C16841F08043C3603E
:104A10003220FCF7BBFD002008BD0000890141F0F9
:104A2000200206490261013905D0036913F0200C08
:104A3000F9D1604670470320704700BF410D030065
:104A40001023064A0361013A05D0016911F0100CE8
:104A5000F9D1604670470320704700BF410D030045
:104A6000033300F5805010B59B1000EB0232002498
:104A70009C4204D051F8240001341060F8E7002073
:104A800010BD10B503329210002300F58050934200
:104A900004D0046841F823400133F8E701EB8300B8
:104AA00010BD4269806910407047406900F0010004
:104AB0007047000084B038B5044605A880E80E00B1
:104AC0000023C4F8003EA16B079B21F48022A2635F
:104AD000A56B032B25F40020A063D4F8001407D1A4
:104AE000B4F1A04F04D041F00405C4F8005403E031
:104AF00021F00402C4F8002410212046FFF78EFFA5
:104B00002046FFF79DFF00231D46069904F5A0628D
:104B10004FF0FF308B4204D090600133D5602032DB
:104B2000F8E70121204600F05EF8C820FCF72EFDD2
:104B300000204FF0FF33B4F1A04FA061636107D1B3
:104B400080210A4D01F5C0026162A262C4F80051E1
:104B5000A069074A40F01003A361A16900200A433D
:104B6000A261BDE8384004B0704700BFE0004000DB
:104B7000080020A310B5D0F80034012923F0030465
:104B8000C0F80044D0F8003401F0030443EA040301
:104B900000F58062C0F8003403D14BF680305060DD
:104BA00004E0022904BF41F270735360002010BD7D
:104BB00037B5044600250195D0F84034019301989B
:104BC00020F02E010191019A0A2042F48073C4F86A
:104BD0004034FCF7DBFC019820F480712846C4F8CF
:104BE000401403B030BD82B000230193D0F84024BC
:104BF0000192019B23F02E020192019BDA0406D45C
:104C0000012902BF019B43F48053C0F84034019A4C
:104C1000D30405D521B9019921F48053C0F840345B
:104C2000002002B0704782B000230193D0F8400406
:104C300001900199C1F3414002B0704700F58060D6
:104C4000816888B270472DE9F0414E0100F5A065FA
:104C50009DF81C704FF0FF3E7419C4F808E04FFA3D
:104C600082FE032F26D8DFE807F00218020A40F27E
:104C70009D4CBEF1000FC4F80CC01BDA06E040F2F8
:104C80009D6CBEF1000FC4F80CC013DAD4F80C8090
:104C900048F4807CC4F80CC00CE040F22528BEF13A
:104CA000000FC4F80C80BEBFD4F80C8048F4C07864
:104CB000C4F80C80D0F818444FF0010808FA01F14C
:104CC0002143C0F818148169D20241F0007181615A
:104CD000BDF820C002F4F0419DF81820BEF1000F8D
:104CE0004FEA8353B4BF4FF40044002403F0FE5353
:104CF000022ACCF30A0242EA03024FEA874342EA5D
:104D0000010203F4402142EA01020CBF4FF40030DB
:104D1000002022430243032F725108BF71594FF004
:104D2000000004BF41F000517151BDE8F081000066
:104D300080B586B000AF7860396000237B750023B2
:104D40007B820023FB824FF480733B820023FB6055
:104D50003B681B69002B19D03B681B693A681289B4
:104D60001344013B3A681289B3FBF2F3FB82FA8ADF
:104D70003B8A9A420CD93B8AFB82FB8A3A681289A9
:104D800002FB03F31A463B681A6101E00123FB8230
:104D90003B68DB78002B07D0FB8A3A68128902FB5C
:104DA00003F31A463B681A613B685B785A017B68DB
:104DB000134403F5A06319463B681B69C3F3120251
:104DC000FB8ADB041846544B03401A433B689B7A2A
:104DD0005B0703F0C04313430B617B6803F58063FB
:104DE0009B6803F00103002B0CBF01230023DBB2FF
:104DF0007B753B685B785A017B68134403F5A063BD
:104E000019463B685B785A017B68134403F5A0633D
:104E10001B6823F000530B603B685B785A017B688A
:104E2000134403F5A06319463B685B785A017B681D
:104E3000134403F5A0631B687A7D520713430B608C
:104E40003B685B785A017B68134403F5A0631B68D9
:104E5000FB60FB6823F08043FB60FB6843F000438A
:104E6000FB603B685B785A017B68134403F5A063E1
:104E70001A46FB6813603B68DB78002B47D13B6820
:104E80001B69002B43D03B68DB79032B30D801A290
:104E900052F823F0A54E0008C94E0008A54E0008A0
:104EA000C94E00083B681B6903339B087B827A8AE2
:104EB0007B68DB6A9BB29A421CD97B689B6943F092
:104EC00020027B689A6115E03B681B6903339B08ED
:104ED0007B827A8A7B6803F580631B699BB29A4266
:104EE0000AD97B689B6943F080627B689A6103E022
:104EF00000BF02E000BF00E000BF3B68D9683B682C
:104F00005A783B681B699BB27868FFF7A9FD0023BC
:104F100018461837BD4680BD0000F81F80B483B026
:104F200000AF78607B6803F580635B699BB21846CD
:104F30000C37BD4680BC704780B485B000AF786048
:104F40000B46FB700023FB60FB785A017B6813441F
:104F500003F5A0631B68FB785A017B68134403F5D3
:104F6000A0631B6803F40023002B6DD0FB785A016B
:104F70007B68134403F5A0631946FB785A017B68EC
:104F8000134403F5A0631B6843F080430B607B6808
:104F9000DB6A9BB2002B43D1FB785A017B68134438
:104FA00003F5A0631946FB785A017B68134403F5A7
:104FB000A0631B6823F000430B60FB785A017B68F9
:104FC000134403F5A0631946FB785A017B68134428
:104FD00003F5A0631B6843F000430B60FB785A01A4
:104FE0007B68134403F5A0631946FB785A017B687C
:104FF000134403F5A0631B6823F400430B60FB68B4
:105000000133FB60FB68B3F57A7F1BD8FB785A014C
:105010007B68134403F5A0631B68002BEFDB82E081
:10502000FB785A017B68134403F5A0631946FB78AB
:105030005A017B68134403F5A0631B6843F00043E7
:105040000B6070E000BF6EE0FB785A017B68134490
:1050500003F5A0631946FB785A017B68134403F5F6
:10506000A0631B6843F080430B607B6803F580639B
:105070001B699BB2002B43D1FB785A017B68134418
:1050800003F5A0631946FB785A017B68134403F5C6
:10509000A0631B6823F000430B60FB785A017B6818
:1050A000134403F5A0631946FB785A017B68134447
:1050B00003F5A0631B6843F000430B60FB785A01C3
:1050C0007B68134403F5A0631946FB785A017B689B
:1050D000134403F5A0631B6823F400430B60FB68D3
:1050E0000133FB60FB68B3F57A7F1BD8FB785A016C
:1050F0007B68134403F5A0631B68002BEFDB12E011
:10510000FB785A017B68134403F5A0631946FB78CA
:105110005A017B68134403F5A0631B6843F0004306
:105120000B6000E000BF002318461437BD4680BC6A
:10513000704780B586B000AF786000233B610023E4
:10514000FB607868FFF74DFC10217868FFF766FC7C
:105150007868FFF775FC0023FB751FE0FB7D5A01A3
:105160007B68134403F5A0631B68FB60FB6843F096
:105170008043FB60FB6823F00043FB60FB6823F483
:105180000043FB60FB7D5A017B68134403F5A06379
:105190001A46FB681360FB7D0133FB75FB7D0F2B0B
:1051A000DCD90023FB7531E0FB7D5A017B68134499
:1051B00003F5A0631B68FB60FB6843F08043FB6062
:1051C000FB6843F00043FB60FB6823F40043FB6093
:1051D000FB7D5A017B68134403F5A0631A46FB6804
:1051E00013603B6901333B613B69B3F57A7F09D8B2
:1051F000FB7D5A017B68134403F5A0631B68002BF9
:10520000EFDB00E000BFFB7D0133FB75FB7D0F2B67
:10521000CAD97B6803F580631A464FF0FF335361A8
:105220007B684FF0FF325A617868FFF7D4FB0023A8
:1052300018461837BD4680BD80B485B000AF786091
:105240000023FB60FB680133FB60FB68124A93425A
:1052500001D903231BE07B681B69002BF2DA0023D2
:10526000FB607B681B6943F001027B681A61FB6885
:105270000133FB60FB68084A934201D9032306E02F
:105280007B681B6903F00103002BF0D10023184653
:105290001437BD4680BC7047400D030000207047A6
:1052A00070B5D0F874320546DC69227B22B112F168
:1052B000FF3018BF012070BDB4F8F8102068012637
:1052C000814280F0D1804FF0340C0CFB014E9EF8EF
:1052D00090308EF89160082B00F2BE80DFE803F07A
:1052E00005BC28660E7BBCBCB9000CFB0140042346
:1052F00080F89030D5F8B862C4F8FC60342606FB1C
:10530000014228469F32C9B200F050FC28B9B4F8D7
:10531000F8E0022006FB0E4407E0022840F08C80F3
:10532000B4F8F8C0052006FB0C4484F8900093E024
:10533000C9B2284600F0D0FBA0B9B4F8F8604FF02D
:10534000340C0CFB064E9EF8921001B101210CFBAF
:105350000644032200238EF8C11084F8902084F8BC
:10536000913018E0022819D1B4F8F8604FF0340CED
:105370000CFB064E0CFB06449EF8921005220229F7
:1053800014BF0121002101208EF8C110022384F8EE
:10539000902084F8910084F892305DE004285BD17D
:1053A000B4F8F800342303FB00444BE00CFB01424B
:1053B00028469432C9B2342600F0B4FB0028ACD1A0
:1053C000B4F8F8C0012206FB0C41944481F8902007
:1053D00081F8910025E00CFB014228469C32C9B2BD
:1053E000342600F04EFCF8B9B4F8F8C006FB0C4EB9
:1053F0009EF89C2002F0FB03022B0BD142F20F70AF
:10540000D5F8B862D4F8FC10721A824202D88EF82D
:10541000903021E0342303FB0C4E01268EF890607F
:10542000B444A4F8F8C017E0022805D1B4F8F81085
:10543000082006FB014478E704280DD1B4F8F810E1
:1054400006FB01440122022084F8902084F8910098
:1054500002E00131A4F8F81000220421D5F8C802B6
:1054600002F05CFC012070BDA4F8F8202673042132
:10547000D5F8C80202F052FC2846D5F8C422022111
:105480009047304670BD70B5D0F874320246DC6982
:10549000A17B022902D0032922D039BB2146104624
:1054A00000F0E2F9032802D10025256000E0F0B900
:1054B00000252E4622784FF0340E01322260022061
:1054C0005FFA85FC624505F1010107D90EFB0C432B
:1054D0000D4683F8920083F8C160F1E7002070BDAB
:1054E000002101F037F908B9E07BA073012070BDFD
:1054F00038B5D0F874320446DD69697939B101F004
:10550000A7F96979204601F0C0F90020687129796E
:1055100041B1204601F09CF92979204601F0B5F906
:1055200000212971D4F87422D06928B102F0AAFEB2
:10553000D4F874420023E361002038BDF0B5D0F800
:10554000741285B0097950230622044600F0DEFC6F
:10555000FF28014600F08480204600F0CEFC4FF486
:105560008070D4F8745202F0F7FDE86194F81F02DD
:105570001A2202FB004696F84872D4F874323806B4
:10558000DD6908D5EF7194F81F3202FB0340B0F8D3
:105590004A226A8108E0AF7194F81F1202FB014CA5
:1055A000BCF84AE2A5F808E094F81F621A2707FB46
:1055B000064191F85032190608D5EB7194F81F6234
:1055C00007FB064EBEF852726F8107E0AB7194F88C
:1055D0001F0207FB004CBCF852222A810026A97941
:1055E000A5F8F860A5F8FA602E736E73AE732046C6
:1055F00001F033F9E9796871204601F02EF928713C
:10560000204600F03FF96822314605F19000FBF793
:1056100087FE2889AA796979029094F81D020227E9
:1056200094F81C3201970090204601F002F9EA79C3
:1056300029796889019794F81D7294F81C320290B8
:105640000097204601F0F5F832462979204608F007
:1056500079FD32466979204608F074FD304600E055
:10566000022005B0F0BD73B5D0F874323424DA6985
:1056700004FB01F3D51895F890400646062C04D09B
:10568000072C08D0052C33D117E0002300931A46CD
:1056900000F086FB04E0002300931A4600F03BFB79
:1056A00028B94FF0010C85F890C0044619E0022893
:1056B0000FD1052285F8902012E01A449C3200F0A8
:1056C000E0FA30B90120022485F8900085F8914075
:1056D00007E0042804D1082185F89010022400E096
:1056E000012400220421D6F8C80202F017FB00E0D2
:1056F0000124204602B070BD03780A2B01BFD0F808
:1057000074323422DB6902FB013103BF91F891004E
:10571000B0FA80F040090020704703780A2B10D1BE
:1057200034235943D0F874029031C069014401F127
:10573000340C51F8043B614542F8043BF9D1002098
:105740007047022070472DE9F74390F81E52044637
:105750000F46DDF82880ADB306780A2E32D1D0F896
:1057600074524FF03409ED6909FB015C9CF890E03C
:10577000BEF1010F26D106262E738CF89060A5F895
:10578000FA10CDF8008000F00BFB42F2107303FB1F
:1057900008F8D4F8B89239462046FFF764FF01288C
:1057A0000CD1D4F8B812C9EB0102424503D894F8E1
:1057B0001E62002EEFD101232B7303E0012028731A
:1057C000002000E0022003B0BDE8F0832DE9F7439C
:1057D00090F81E5204460F46DDF82880ADB30678D7
:1057E0000A2E32D1D0F874524FF03409ED6909FB1A
:1057F000015C9CF890E0BEF1010F26D107262E73C4
:105800008CF89060A5F8FA10CDF8008000F083FACB
:1058100042F2107303FB08F8D4F8B89239462046D8
:10582000FFF721FF01280CD1D4F8B812C9EB01020F
:10583000424503D894F81E62002EEFD101232B734A
:1058400003E001202873002000E0022003B0BDE83F
:10585000F0832122FF21027400224174428282825D
:10586000C282114600F03BBDA1220274FE224FF01D
:10587000000C42740122A0F812C0A0F814C0C28229
:1058800000F02DBDD0F87432054AD86905490123CE
:105890004265816580F8503080F8523000207047B2
:1058A000555342435040302073B5D0F87432064609
:1058B000DC6994F8500000F1FF3CBCF10A0F00F2E3
:1058C0000581DFE81CF00B001A003B004400660075
:1058D00071009C00A500D300DC00FA000222012523
:1058E00084F8611084F8502063791F22009504F138
:1058F0005401304600F076FFE9E06179304608F067
:1059000017FC0128014612D1E56D35B194F96020EC
:10591000002AB4BF0322052200E0072284F85020A9
:1059200000220221D6F8C80202F0F8F9CEE00228DF
:1059300061D1012584F8505000228EE03046237951
:105940006289D4F88C1000F064FF0426B2E021795B
:10595000304608F0EDFB012840F08480E36D628959
:1059600093428ABF9B1A0023D4F88C10E365E06D44
:1059700084BF8918C4F88C1030B12379D4F88C1006
:10598000304600F046FFA1E0072184F8501002469F
:10599000C7E70125637922890095D4F88C10304639
:1059A00000F020FF06218EE06179304608F0C0FB50
:1059B0000128014618D1E06D2289904285BFD4F8B4
:1059C0008C10801A00208918E06588BFC4F88C10FC
:1059D000E16D0029A1D0012563790095D4F88C10E0
:1059E000304600F0FFFE9BE7022804D1052584F82D
:1059F0005050002296E7052968D10A228EE73046EA
:105A000023790D2204F1780100F003FF082651E00C
:105A10002179304608F08CFB012823D184F850000E
:105A200084F85200D6F874323046DC69217908F0E7
:105A300050FB0D280ED1A06F264988420AD1E26F93
:105A4000A36D9A4206D194F88440002C14BF02251D
:105A5000002500E0022500220221D6F8C80202F04B
:105A60005DF934E0052831D1092257E7E179304664
:105A700000F070FE08B907261CE0042818E0A179A0
:105A8000304600F067FE054688B96179304608F077
:105A900068FBC0F10102D2B26179304608F052FBD6
:105AA00030462A46217908F04DFB092602E00428F9
:105AB0000CD10B2684F8506008E03046FFF7C9FE91
:105AC000054620B9012184F8501000E00125284640
:105AD00002B070BD5553425370B5D0F87432DC69D2
